:020000040000fa
:080000000002040000000000f2
:020000040000fa
:040008000c030000e5
:020000040000fa
:04000c000c030000e1
:020000040000fa
:040010000c030000dd
:020000040000fa
:040014000c030000d9
:020000040000fa
:040018000c030000d5
:020000040000fa
:04001c000c030000d1
:020000040000fa
:040020000c030000cd
:020000040000fa
:040024000c030000c9
:020000040000fa
:040028000c030000c5
:020000040000fa
:04002c000c030000c1
:020000040000fa
:040030000c030000bd
:020000040000fa
:040034000c030000b9
:020000040000fa
:040038000c030000b5
:020000040000fa
:04003c000c030000b1
:020000040000fa
:040040000c030000ad
:020000040000fa
:040044000c030000a9
:020000040000fa
:040048000c030000a5
:020000040000fa
:04004c000c030000a1
:020000040000fa
:040050000c0300009d
:020000040000fa
:04005400c8020000de
:020000040000fa
:040058000c03000095
:020000040000fa
:04005c000c03000091
:020000040000fa
:040060000c0300008d
:020000040000fa
:040064000c03000089
:020000040000fa
:040068000c03000085
:020000040000fa
:04006c000c03000081
:020000040000fa
:040070000c0300007d
:020000040000fa
:040074000c03000079
:020000040000fa
:040078000c03000075
:020000040000fa
:04007c000c03000071
:020000040000fa
:040080000c0300006d
:020000040000fa
:040084000c03000069
:020000040000fa
:040088000c03000065
:020000040000fa
:04008c000c03000061
:020000040000fa
:040090000c0300005d
:020000040000fa
:040094000c03000059
:020000040000fa
:040098000c03000055
:020000040000fa
:04009c000c03000051
:020000040000fa
:0400a0000c0300004d
:020000040000fa
:0400a4000c03000049
:020000040000fa
:0400a8000c03000045
:020000040000fa
:0400ac000c03000041
:020000040000fa
:0400b0000c0300003d
:020000040000fa
:0400b4000c03000039
:020000040000fa
:0400b8000c03000035
:020000040000fa
:0400bc000c03000031
:020000040000fa
:0400c0000c0300002d
:020000040000fa
:0400c4000c03000029
:020000040000fa
:0400c8000c03000025
:020000040000fa
:0400cc000c03000021
:020000040000fa
:0400d0000c0300001d
:020000040000fa
:0400d4000c03000019
:020000040000fa
:0400d8000c03000015
:020000040000fa
:0400dc000c03000011
:020000040000fa
:0400e0000c0300000d
:020000040000fa
:0400e4000c03000009
:020000040000fa
:0400e8000c03000005
:020000040000fa
:0400ec000c03000001
:020000040000fa
:0400f0000c030000fd
:020000040000fa
:0400f4000c030000f9
:020000040000fa
:0400f8000c030000f5
:020000040000fa
:0400fc000c030000f1
:020000040000fa
:040100000c030000ec
:020000040000fa
:040104000c030000e8
:020000040000fa
:040108000c030000e4
:020000040000fa
:04010c000c030000e0
:020000040000fa
:040110000c030000dc
:020000040000fa
:040114000c030000d8
:020000040000fa
:040118000c030000d4
:020000040000fa
:04011c000c030000d0
:020000040000fa
:040120000c030000cc
:020000040000fa
:040124000c030000c8
:020000040000fa
:040128000c030000c4
:020000040000fa
:04012c000c030000c0
:020000040000fa
:040130000c030000bc
:020000040000fa
:040134000c030000b8
:020000040000fa
:040138000c030000b4
:020000040000fa
:04013c000c030000b0
:020000040000fa
:040140000c030000ac
:020000040000fa
:040144000c030000a8
:020000040000fa
:040208000c030000e3
:020000040000fa
:04020c000c030000df
:020000040000fa
:040210000c030000db
:020000040000fa
:040214000c030000d7
:020000040000fa
:040218000c030000d3
:020000040000fa
:04021c000c030000cf
:020000040000fa
:040220000c030000cb
:020000040000fa
:040224000c030000c7
:020000040000fa
:040228000c030000c3
:020000040000fa
:04022c000c030000bf
:020000040000fa
:040230000c030000bb
:020000040000fa
:040234000c030000b7
:020000040000fa
:040238000c030000b3
:020000040000fa
:04023c000c030000af
:020000040000fa
:040240000c030000ab
:020000040000fa
:040244000c030000a7
:020000040000fa
:040248000c030000a3
:020000040000fa
:04024c000c0300009f
:020000040000fa
:040250000c0300009b
:020000040000fa
:04025400c8020000dc
:020000040000fa
:040258000c03000093
:020000040000fa
:04025c000c0300008f
:020000040000fa
:040260000c0300008b
:020000040000fa
:040264000c03000087
:020000040000fa
:040268000c03000083
:020000040000fa
:04026c000c0300007f
:020000040000fa
:040270000c0300007b
:020000040000fa
:040274000c03000077
:020000040000fa
:040278000c03000073
:020000040000fa
:04027c000c0300006f
:020000040000fa
:040280000c0300006b
:020000040000fa
:040284000c03000067
:020000040000fa
:040288000c03000063
:020000040000fa
:04028c000c0300005f
:020000040000fa
:040290000c0300005b
:020000040000fa
:040294000c03000057
:020000040000fa
:040298000c03000053
:020000040000fa
:04029c000c0300004f
:020000040000fa
:0402a0000c0300004b
:020000040000fa
:0402a4000c03000047
:020000040000fa
:0402a8000c03000043
:020000040000fa
:0402ac000c0300003f
:020000040000fa
:0402b0000c0300003b
:020000040000fa
:0402b4000c03000037
:020000040000fa
:0402b8000c03000033
:020000040000fa
:0402bc000c0300002f
:020000040000fa
:0402c0000c0300002b
:020000040000fa
:0402c4000c03000027
:020000040000fa
:0402c8000c03000023
:020000040000fa
:0402cc000c0300001f
:020000040000fa
:0402d0000c0300001b
:020000040000fa
:0402d4000c03000017
:020000040000fa
:0402d8000c03000013
:020000040000fa
:0402dc000c0300000f
:020000040000fa
:0402e0000c0300000b
:020000040000fa
:0402e4000c03000007
:020000040000fa
:0402e8000c03000003
:020000040000fa
:0402ec000c030000ff
:020000040000fa
:0402f0000c030000fb
:020000040000fa
:0402f4000c030000f7
:020000040000fa
:0402f8000c030000f3
:020000040000fa
:0402fc000c030000ef
:020000040000fa
:040300000c030000ea
:020000040000fa
:040304000c030000e6
:020000040000fa
:040308000c030000e2
:020000040000fa
:04030c000c030000de
:020000040000fa
:040310000c030000da
:020000040000fa
:040314000c030000d6
:020000040000fa
:040318000c030000d2
:020000040000fa
:04031c000c030000ce
:020000040000fa
:040320000c030000ca
:020000040000fa
:040324000c030000c6
:020000040000fa
:040328000c030000c2
:020000040000fa
:04032c000c030000be
:020000040000fa
:040330000c030000ba
:020000040000fa
:040334000c030000b6
:020000040000fa
:040338000c030000b2
:020000040000fa
:04033c000c030000ae
:020000040000fa
:040340000c030000aa
:020000040000fa
:040344000c030000a6
:020000040000fa
:100400002f8c20000eff27000e0188000000000046
:10041000000020000000e000020032000001200087
:1004200020028800140007007d0007000000e000a3
:1004300003003a00a0542000010020000200370011
:100440000000200001002000810f70000100320038
:1004500014000700000020000000e000020032004d
:1004600000000200000000003e0502000000000045
:100470000040da000000fe004440a900e000200037
:100480000000e0000300320000002000a00188000e
:100490004440a800000006008a1f78008b1f7800e7
:1004a0000000060091018800800478000000eb0045
:1004b0001a003700e284440032a0b4009905ba0063
:1004c000e284440032a0b4009906ba00e2844400f9
:1004d00032a0b4000006eb00476fde00fd07b2005b
:1004e000636ce10003003a00ebff07000000eb0043
:1004f0000a003700606ce10004003a00005deb0088
:100500008b05e900fdff3e00040037006168e10053
:10051000010032000086eb000b00070019c7ba008b
:100520001905ba000e04e00003003a000a00e000da
:10053000e0ff3a0000000600fe07b2009e018800be
:100540008a047800f5ff3700395dba008b05e900b1
:100550000c003200295dba008b05e900080032006a
:100560000c00e00003003a00e284440032a0b40032
:10057000f5ff370019ddba008b05e900faff3a00f4
:100580008904e800e184440032a0b40000000600c1
:10059000809fbe00829fbe000000fa00f018840019
:1005a0009000780001b0a10001087800a018840034
:1005b00010007800620060000000e00004003200db
:1005c000a0188400900078000110a10001087800b4
:1005d00000c8bf008080fb00d218840092417800e0
:1005e0002288200003f178000040e80000e8b7000e
:1005f0000180200091407800f0c3b30080cf50000c
:10060000010036000068ef000080fa004f01be00d4
:100610004f00be00004006000040da000000fe006f
:0406200000000500d1
:020000040000fa
:100624002002000022020000280200002402000030
:0c0634002602000094000000840000007a
:020000040000fa
:100640000a00fa0030079800410798000080eb008c
:10065000000f78000000eb00100798001f00370023
:10066000be0090001e009000008040001040780006
:100670000080fb001e0f68000040eb004047980020
:10068000100037001e007800610060000040780014
:100690000004e000050032001e0078008000d10058
:1006a00010002a00008f6800030037001e00780049
:1006b0000000d100000f78004e4090000040e8009c
:1006c000404798004e409000e74f5000edff360045
:1006d0001e0090000000e800100798009e009000a7
:1006e0004e009000808f5000ddff39001e00780022
:1006f0000080fa00000006000400fa0010079800cd
:100700000000eb00000f7800010037001e0fe8002a
:100710001e0090009e007800808f5000fbff390083
:100720000080fa00000006000000fa009018840023
:10073000900078000100a100010878009018840062
:100740001001780091ff2f008100610001087800fe
:1007500090188400900078000150a10001087800f2
:1007600090188400900078000130a0000108780003
:10077000901884009000780001f0a0000108780033
:100780009018840010017800f1cf2f0081006100e3
:1007900001087800a01884009000780001a0a00053
:1007a00001087800b0188400f105200001087800e5
:1007b000e01884009000780001b0a00001087800e3
:1007c0000080fa00000006001400fa00889fbe00b6
:1007d0000f0478000f0078008004780000c8bf0084
:1007e000e74f5000a0003600208820003007980016
:1007f0003e0090000080e800104078000080fb0080
:10080000c800dd003e00900063004000104078000a
:100810000080fb0001007000400798003e0090003f
:1008200064004000104078000080fb00c800dd003c
:100830003e00900065004000104078000080fb0002
:1008400001007000500798004e009000e10f50002a
:1008500004003200ce00900000042000808f500081
:1008600081003e004e009000e10f50000600320073
:10087000010420004e009000808050005e00900037
:10088000808f5000780039003e00900067004000e3
:10089000104078000080fb00c800dd003e009000a2
:1008a00066004000104078000080fb0001007000ee
:1008b00060079800610020003e00900060ff070084
:1008c000ee009000810f500067003a005e0090003b
:1008d0000000400065004000800078008100e900d1
:1008e000710798000000e8000000e8000000d10057
:1008f000800040000f007800818747000000e8007a
:100900000000d10000004000000f98000e08900089
:1009100011c0b300014878000e08900031c0b30048
:10092000114098005e0090000040780000404000b8
:10093000804078000e089000214098003000200090
:10094000000f7800ce0090001107980018003700c3
:100950001e009000800040002080200000804000a9
:10096000100078004800de00804078000e089000fb
:100970001e004000014878001e0fe8001e00900095
:10098000800040002080200000804000100078009f
:10099000804078000e0890001e004000014878005a
:1009a0001e0fe8001e0090000000e80010079800ed
:1009b000de0090004e009000808040001e009000fd
:1009c000808f5000e2ff3e000e0890009e007800ed
:1009d0001bff0700100f98001e0890008040780051
:1009e0000e0890001e004000014878001e0fe8002d
:1009f0001e0890004800de00804078000e0890003d
:100a00001e004000014878001e0fe8000000eb00c7
:100a1000200798001000370000000000a018840094
:100a20009000780000202000008060000000e000be
:100a3000faff3a00c01884000e099000ae00900042
:100a40008100410091407800014878002e0090001c
:100a50000000e800200798002e0090009e0f500034
:100a6000edff39000068ef008907780088077800fb
:100a70004f04be000080fa00000006000000fa00eb
:100a800029ff0700400620001bff07004eff07005c
:040a9000feff37002e
:020000040000fa
:100a94000208000080000000020000001111220082
:100aa4002233330044445500556666007777880046
:100ab40088999900aaaacd00abbbbb00ccccdd00c1
:100ac400ddeeee00ffff110011222200333344005b
:100ad4004455550066667700778888009999aa007e
:100ae400aacdab00bbbbcc00ccdddd00eeeeff003d
:100af400ff1111002222330033444400555566008f
:100b0400667777008888990099aaaa00cdabbb00c4
:100b1400bbcccc00ddddee00eeffff0011112200a6
:100b240022333300444455005566660077778800c5
:100b340088999900aaaacd00abbbbb00ccccdd0040
:100b4400ddeeee00ffff0000820800004000000020
:100b54000000000000080000020000000000000087
:040b6400000000008d
:020000040000fa
:0200000401f009
:04000000ffffff00ff
:020000040000fa
:0200000401f009
:04000400ffffff00fb
:020000040000fa
:0200000401f009
:04000800ffffff00f7
:020000040000fa
:0200000401f009
:04000c007aff000077
:020000040000fa
:0200000401f009
:04001000bdff000030
:020000040000fa
:0200000401f009
:040014007fffff006b
:020000040000fa
:0200000401f009
:04001800ffff0000e6
:020000040000fa
:0200000401f009
:04001c00dfff000002
:00000001FF
