:020000040000fa
:080000000002040000000000f2
:020000040000fa
:0400080026030000cb
:020000040000fa
:04000c0026030000c7
:020000040000fa
:0400100026030000c3
:020000040000fa
:0400140026030000bf
:020000040000fa
:0400180026030000bb
:020000040000fa
:04001c0026030000b7
:020000040000fa
:0400200026030000b3
:020000040000fa
:0400240026030000af
:020000040000fa
:0400280026030000ab
:020000040000fa
:04002c0026030000a7
:020000040000fa
:0400300026030000a3
:020000040000fa
:04003400260300009f
:020000040000fa
:04003800260300009b
:020000040000fa
:04003c002603000097
:020000040000fa
:040040002603000093
:020000040000fa
:04004400260300008f
:020000040000fa
:04004800260300008b
:020000040000fa
:04004c002603000087
:020000040000fa
:040050002603000083
:020000040000fa
:04005400c8020000de
:020000040000fa
:04005800020300009f
:020000040000fa
:04005c002603000077
:020000040000fa
:040060002603000073
:020000040000fa
:04006400260300006f
:020000040000fa
:04006800260300006b
:020000040000fa
:04006c002603000067
:020000040000fa
:040070002603000063
:020000040000fa
:04007400260300005f
:020000040000fa
:04007800260300005b
:020000040000fa
:04007c002603000057
:020000040000fa
:040080002603000053
:020000040000fa
:04008400260300004f
:020000040000fa
:04008800260300004b
:020000040000fa
:04008c002603000047
:020000040000fa
:040090002603000043
:020000040000fa
:04009400260300003f
:020000040000fa
:04009800260300003b
:020000040000fa
:04009c002603000037
:020000040000fa
:0400a0002603000033
:020000040000fa
:0400a400260300002f
:020000040000fa
:0400a800260300002b
:020000040000fa
:0400ac002603000027
:020000040000fa
:0400b0002603000023
:020000040000fa
:0400b400260300001f
:020000040000fa
:0400b800260300001b
:020000040000fa
:0400bc002603000017
:020000040000fa
:0400c0002603000013
:020000040000fa
:0400c400260300000f
:020000040000fa
:0400c800260300000b
:020000040000fa
:0400cc002603000007
:020000040000fa
:0400d0002603000003
:020000040000fa
:0400d40026030000ff
:020000040000fa
:0400d80026030000fb
:020000040000fa
:0400dc0026030000f7
:020000040000fa
:0400e00026030000f3
:020000040000fa
:0400e40026030000ef
:020000040000fa
:0400e80026030000eb
:020000040000fa
:0400ec0026030000e7
:020000040000fa
:0400f00026030000e3
:020000040000fa
:0400f40026030000df
:020000040000fa
:0400f80026030000db
:020000040000fa
:0400fc0026030000d7
:020000040000fa
:0401000026030000d2
:020000040000fa
:0401040026030000ce
:020000040000fa
:0401080026030000ca
:020000040000fa
:04010c0026030000c6
:020000040000fa
:0401100026030000c2
:020000040000fa
:0401140026030000be
:020000040000fa
:0401180026030000ba
:020000040000fa
:04011c0026030000b6
:020000040000fa
:0401200026030000b2
:020000040000fa
:0401240026030000ae
:020000040000fa
:0401280026030000aa
:020000040000fa
:04012c0026030000a6
:020000040000fa
:0401300026030000a2
:020000040000fa
:04013400260300009e
:020000040000fa
:04013800260300009a
:020000040000fa
:04013c002603000096
:020000040000fa
:040140002603000092
:020000040000fa
:04014400260300008e
:020000040000fa
:0402080026030000c9
:020000040000fa
:04020c0026030000c5
:020000040000fa
:0402100026030000c1
:020000040000fa
:0402140026030000bd
:020000040000fa
:0402180026030000b9
:020000040000fa
:04021c0026030000b5
:020000040000fa
:0402200026030000b1
:020000040000fa
:0402240026030000ad
:020000040000fa
:0402280026030000a9
:020000040000fa
:04022c0026030000a5
:020000040000fa
:0402300026030000a1
:020000040000fa
:04023400260300009d
:020000040000fa
:040238002603000099
:020000040000fa
:04023c002603000095
:020000040000fa
:040240002603000091
:020000040000fa
:04024400260300008d
:020000040000fa
:040248002603000089
:020000040000fa
:04024c002603000085
:020000040000fa
:040250002603000081
:020000040000fa
:04025400c8020000dc
:020000040000fa
:04025800020300009d
:020000040000fa
:04025c002603000075
:020000040000fa
:040260002603000071
:020000040000fa
:04026400260300006d
:020000040000fa
:040268002603000069
:020000040000fa
:04026c002603000065
:020000040000fa
:040270002603000061
:020000040000fa
:04027400260300005d
:020000040000fa
:040278002603000059
:020000040000fa
:04027c002603000055
:020000040000fa
:040280002603000051
:020000040000fa
:04028400260300004d
:020000040000fa
:040288002603000049
:020000040000fa
:04028c002603000045
:020000040000fa
:040290002603000041
:020000040000fa
:04029400260300003d
:020000040000fa
:040298002603000039
:020000040000fa
:04029c002603000035
:020000040000fa
:0402a0002603000031
:020000040000fa
:0402a400260300002d
:020000040000fa
:0402a8002603000029
:020000040000fa
:0402ac002603000025
:020000040000fa
:0402b0002603000021
:020000040000fa
:0402b400260300001d
:020000040000fa
:0402b8002603000019
:020000040000fa
:0402bc002603000015
:020000040000fa
:0402c0002603000011
:020000040000fa
:0402c400260300000d
:020000040000fa
:0402c8002603000009
:020000040000fa
:0402cc002603000005
:020000040000fa
:0402d0002603000001
:020000040000fa
:0402d40026030000fd
:020000040000fa
:0402d80026030000f9
:020000040000fa
:0402dc0026030000f5
:020000040000fa
:0402e00026030000f1
:020000040000fa
:0402e40026030000ed
:020000040000fa
:0402e80026030000e9
:020000040000fa
:0402ec0026030000e5
:020000040000fa
:0402f00026030000e1
:020000040000fa
:0402f40026030000dd
:020000040000fa
:0402f80026030000d9
:020000040000fa
:0402fc0026030000d5
:020000040000fa
:0403000026030000d0
:020000040000fa
:0403040026030000cc
:020000040000fa
:0403080026030000c8
:020000040000fa
:04030c0026030000c4
:020000040000fa
:0403100026030000c0
:020000040000fa
:0403140026030000bc
:020000040000fa
:0403180026030000b8
:020000040000fa
:04031c0026030000b4
:020000040000fa
:0403200026030000b0
:020000040000fa
:0403240026030000ac
:020000040000fa
:0403280026030000a8
:020000040000fa
:04032c0026030000a4
:020000040000fa
:0403300026030000a0
:020000040000fa
:04033400260300009c
:020000040000fa
:040338002603000098
:020000040000fa
:04033c002603000094
:020000040000fa
:040340002603000090
:020000040000fa
:04034400260300008c
:020000040000fa
:100400006f9520000eff27000e01880000000000fd
:10041000000020000000e000020032000001200087
:1004200020028800140007008a0007000000e00096
:1004300003003a006077200001002000020037002e
:100440000000200001002000810f70000100320038
:1004500014000700000020000000e000020032004d
:100460000000020000000000e007020000000000a1
:100470000040da000000fe004440a900e000200037
:100480000000e0000300320000002000a00188000e
:100490004440a800000006008a1f78008b1f7800e7
:1004a0000000060091018800800478000000eb0045
:1004b0001a003700e284440032a0b4009905ba0063
:1004c000e284440032a0b4009906ba00e2844400f9
:1004d00032a0b4000006eb00476fde00fd07b2005b
:1004e000636ce10003003a00ebff07000000eb0043
:1004f0000a003700606ce10004003a00005deb0088
:100500008b05e900fdff3e00040037006168e10053
:10051000010032000086eb000b00070019c7ba008b
:100520001905ba000e04e00003003a000a00e000da
:10053000e0ff3a0000000600fe07b2009e018800be
:100540008a047800f5ff3700395dba008b05e900b1
:100550000c003200295dba008b05e900080032006a
:100560000c00e00003003a00e284440032a0b40032
:10057000f5ff370019ddba008b05e900faff3a00f4
:100580008904e800e184440032a0b40000000600c1
:100590003600f800809fbe00829fbe00849fbe0090
:1005a000869fbe000000fa00c01984009000780009
:1005b00001b0a100010878007019840010007800d3
:1005c000620060000000e000040032007019840046
:1005d000900078000110a10001087800a0198400a3
:1005e00010407800640007000080fa004f03be004e
:1005f0004f02be004f01be004f00be003600f900a2
:10060000004006003600f800809fbe00829fbe00ba
:10061000849fbe00869fbe000000fa00c0198400bf
:100620009000780001c0a100010878006400070074
:100630000080fa004f03be004f02be004f01be0013
:100640004f00be003600f900004006000040da000e
:080650000000fe00000005009f
:020000040000fa
:1006580020020000220200002802000024020000fc
:0c06680026020000940000008400000046
:020000040000fa
:100674000a00fa0030079800410798000080eb0058
:10068400000f78000000eb00100798001f003700ef
:10069400be0090001e0090000080400010407800d2
:1006a4000080fb001e0f68000040eb0040479800ec
:1006b400100037001e0078006100600000407800e0
:1006c4000004e000050032001e0078008000d10024
:1006d40010002a00008f6800030037001e00780015
:1006e4000000d100000f78004e4090000040e80068
:1006f400404798004e409000e74f5000edff360011
:100704001e0090000000e800100798009e00900072
:100714004e009000808f5000ddff39001e007800ed
:100724000080fa00000006000800fa00000f7800bc
:100734001107980022079800330798009e0078005c
:10074400014088009e009000114088000468ef007a
:10075400ae00900031408800be0090004140880007
:100764000a28ef000c28ef000e68ef000080fa0062
:10077400000006000200fa00004f780004c8bf0021
:100784008080fb0010408000808f50000800310002
:100794000240800004c8bf008080fb00810041004b
:1007a4009e4878000040e80004e8b70001003700e4
:1007b4000468ef000080fa00000006000000fa0060
:1007c4005140800060408000808f5000090031005b
:1007d400314080005040800080804000914078008b
:1007e4000000e8005040880001407800a3010700a1
:1007f40004003700b50107000e68ef000a28ef0077
:100804000c28ef000080fa00000006001200fa0035
:10081400881f780004c8bf00e74f50009e003600d0
:1008240001408000210798002e00900010407800bd
:100834000080fb00300798002e0090000000e800c4
:1008440090407800014f98002e0090000080e8004e
:10085400104078000080fb00c800dd002e009000ee
:1008640063004000104078000080fb00010070002d
:10087400500798002e00900064004000104078005b
:100884000080fb00c800dd002e00900065004000e1
:10089400104078000080fb000100700060079800a1
:1008a4002e00900067004000104078000080fb009c
:1008b400c800dd002e009000660040001040780063
:1008c4000080fb0001007000700798003e0090005b
:1008d400ea0f50006e003a000e489000e34f5000bb
:1008e4006b003a005e009000e10f500004003200fb
:1008f400de00900000042000808f500064003e0061
:100904005e009000e10f5000060032000104200058
:100914005e009000808050006e009000808f500038
:100924005b003900610020002e00900050ff07009a
:10093400fe009000810f500054003a0030408000c7
:10094400a1c0b30001487800304080000000e800f6
:1009540031c0b30001487800304080008080e80056
:100964006e0090000040780000404000804878000d
:100974000000eb00000f7800300020001007980002
:10098400de009000010f780016003700314080002f
:100994001e009000008440001e0078004200070002
:1009a4004800de0000407800004c78001e009000f3
:1009b4000000e80010079800314080001e009000fd
:1009c400008440001e0078003700070000407800d3
:1009d400004c78001e0090000000e800100798000a
:1009e4001e0fe800de0090006e00900000804000c2
:1009f4009e0f5000e5ff3e00304080009e009000b6
:100a04001bff0700000f9800314080001e0090007b
:100a1400008040008e0890008140780001487800f2
:100a24001e0090000000e80010079800314080008c
:100a34001e009000008040008e089000c808de0070
:100a440081407800014878001e0090000000e80012
:100a5400100798000ec8bf000004e0000c003a0024
:100a640010002000504088009e00900061408800e3
:100a740010c0b3000ee8b70030408000104078008a
:100a8400fe0007000a010700010037000000000013
:100a94000468ef0001003700000000004f047800f4
:100aa4000080fa00000006000200fa00000f78003f
:100ab4001e0078008000eb00f203200003002000f9
:100ac400820f5000838f5800c1003e000060010077
:100ad4003f00370040003700410037004200370034
:100ae4004300370044003700450037004600370014
:100af4004700370048003700490037004a003700f4
:100b04004b0037004c0037004d0037004e003700d3
:100b14004f003700500037005100370052003700b3
:100b24005300370054003700550037005600370093
:100b34005700370058003700590037005a00370073
:100b44005b0037005c0037005d0037005e00370053
:100b54005f00370060003700610037006200370033
:100b64006300370064003700650037006600370013
:100b74006700370068003700690037006a003700f3
:100b84006b0037006c0037006d0037006e003700d3
:100b94006f003700700037007100370072003700b3
:100ba4007300370074003700750037007600370093
:100bb4007700370078003700790037007a00370073
:100bc4007b0037007c0037007d0037007e00370053
:100bd400b04680007f003700c04680007d003700ab
:100be400d04680007b003700e04680007900370063
:100bf400f04680007700370000478000750037001a
:100c040010478000730037002047800071003700d0
:100c1400304780006f003700404780006d00370088
:100c2400504780006b003700604780006900370040
:100c340070478000670037008047800065003700f8
:100c44009047800063003700a047800061003700b0
:100c5400b04780005f003700c04780005d00370068
:100c6400d04780005b003700e04780005900370020
:100c7400f0478000570037000048800055003700d7
:100c8400104880005300370020488000510037008e
:100c9400304880004f003700404880004d00370046
:100ca400504880004b0037006048800049003700fe
:100cb40070488000470037008048800045003700b6
:100cc4009048800043003700a0488000410037006e
:100cd400b04880003f003700c04880003d00370026
:100ce400d04880003b003700e048800039003700de
:100cf400f048800037003700004980003500370095
:100d0400104980003300370020498000310037004b
:100d1400304980002f003700404980002d00370003
:100d2400504980002b0037006049800029003700bb
:100d34007049800027003700804980002500370073
:100d44009049800023003700a0498000210037002b
:100d5400b04980001f003700c04980001d003700e3
:100d6400d04980001b003700e0498000190037009b
:100d7400f049800017003700004a80001500370052
:100d8400104a800013003700204a80001100370009
:100d9400304a80000f003700404a80000d003700c1
:100da400504a80000b003700604a80000900370079
:100db400704a800007003700804a80000500370031
:100dc400904a800003003700a04a800001003700e9
:100dd4000000eb000080fa00000006000000fa00aa
:100de40060198400900078000100a10001087800d7
:100df400601984001001780091ff2f0081006100c8
:100e04000108780060198400900078000150a10066
:100e14000108780060198400900078000130a00077
:100e240001087800601984009000780001f0a000a7
:100e3400010878006019840010017800f1cf2f00b8
:100e44008100610001087800701984009000780026
:100e540001a0a0000108780080198400710020001e
:100e640001087800b01984009000780001b0a00057
:100e7400010878000080fa00000006000200fa0071
:100e8400004f780000000000701984009000780082
:100e940000102000008060000000e000faff320033
:100ea400901984001e4878000080fa0000000600b3
:100eb4000000fa00b01984009000780001c0a0007e
:100ec400010878000080fa00000006000000fa0023
:100ed400b01984009000780001c0a10001087800d6
:080ee4000080fa000000060086
:020000040000fa
:100eec00000800001000000000000000d608000000
:100efc008000000002000000111122002233330098
:100f0c0044445500556666007777880088999900a7
:100f1c00aaaacd00abbbbb00ccccdd00ddeeee0055
:100f2c00ffff1100112222003333440044555500b9
:100f3c0066667700778888009999aa00aacdab00dd
:100f4c00bbbbcc00ccdddd00eeeeff00ff111100d1
:100f5c0022223300334444005555660066777700ef
:100f6c008888990099aaaa00cdabbb00bbcccc0059
:100f7c00ddddee00eeffff00111122002233330005
:100f8c004444550055666600777788008899990027
:100f9c00aaaacd00abbbbb00ccccdd00ddeeee00d5
:100fac00ffff000010080000c60000000000000059
:040fbc000000000031
:020000040000fa
:100fc0000000fa0086ff0700530820000285200079
:100fd0000104200000812000d4fd07000cfe070062
:040fe000feff3700d9
:020000040000fa
:0200000401f009
:04000000ffffff00ff
:020000040000fa
:0200000401f009
:04000400ffffff00fb
:020000040000fa
:0200000401f009
:04000800ffffff00f7
:020000040000fa
:0200000401f009
:04000c007aff000077
:020000040000fa
:0200000401f009
:04001000bdff000030
:020000040000fa
:0200000401f009
:040014007fffff006b
:020000040000fa
:0200000401f009
:04001800ffff0000e6
:020000040000fa
:0200000401f009
:04001c00dfff000002
:00000001FF
