:020000040000fa
:080000000002040000000000f2
:020000040000fa
:0400080048030000a9
:020000040000fa
:04000c0048030000a5
:020000040000fa
:0400100048030000a1
:020000040000fa
:04001400480300009d
:020000040000fa
:040018004803000099
:020000040000fa
:04001c004803000095
:020000040000fa
:040020004803000091
:020000040000fa
:04002400480300008d
:020000040000fa
:040028004803000089
:020000040000fa
:04002c004803000085
:020000040000fa
:040030004803000081
:020000040000fa
:04003400480300007d
:020000040000fa
:040038004803000079
:020000040000fa
:04003c004803000075
:020000040000fa
:040040004803000071
:020000040000fa
:04004400480300006d
:020000040000fa
:040048004803000069
:020000040000fa
:04004c004803000065
:020000040000fa
:040050004803000061
:020000040000fa
:0400540004030000a1
:020000040000fa
:04005800c8020000da
:020000040000fa
:04005c004803000055
:020000040000fa
:040060004803000051
:020000040000fa
:04006400480300004d
:020000040000fa
:040068004803000049
:020000040000fa
:04006c004803000045
:020000040000fa
:040070004803000041
:020000040000fa
:04007400480300003d
:020000040000fa
:040078004803000039
:020000040000fa
:04007c004803000035
:020000040000fa
:040080004803000031
:020000040000fa
:04008400480300002d
:020000040000fa
:040088004803000029
:020000040000fa
:04008c004803000025
:020000040000fa
:040090004803000021
:020000040000fa
:04009400480300001d
:020000040000fa
:040098004803000019
:020000040000fa
:04009c004803000015
:020000040000fa
:0400a0004803000011
:020000040000fa
:0400a400480300000d
:020000040000fa
:0400a8004803000009
:020000040000fa
:0400ac004803000005
:020000040000fa
:0400b0004803000001
:020000040000fa
:0400b40048030000fd
:020000040000fa
:0400b80048030000f9
:020000040000fa
:0400bc0048030000f5
:020000040000fa
:0400c00048030000f1
:020000040000fa
:0400c40048030000ed
:020000040000fa
:0400c80048030000e9
:020000040000fa
:0400cc0048030000e5
:020000040000fa
:0400d00048030000e1
:020000040000fa
:0400d40048030000dd
:020000040000fa
:0400d80048030000d9
:020000040000fa
:0400dc0048030000d5
:020000040000fa
:0400e00048030000d1
:020000040000fa
:0400e40048030000cd
:020000040000fa
:0400e80048030000c9
:020000040000fa
:0400ec0048030000c5
:020000040000fa
:0400f00048030000c1
:020000040000fa
:0400f40048030000bd
:020000040000fa
:0400f80048030000b9
:020000040000fa
:0400fc0048030000b5
:020000040000fa
:0401000048030000b0
:020000040000fa
:0401040048030000ac
:020000040000fa
:0401080048030000a8
:020000040000fa
:04010c0048030000a4
:020000040000fa
:0401100048030000a0
:020000040000fa
:04011400480300009c
:020000040000fa
:040118004803000098
:020000040000fa
:04011c004803000094
:020000040000fa
:040120004803000090
:020000040000fa
:04012400480300008c
:020000040000fa
:040128004803000088
:020000040000fa
:04012c004803000084
:020000040000fa
:040130004803000080
:020000040000fa
:04013400480300007c
:020000040000fa
:040138004803000078
:020000040000fa
:04013c004803000074
:020000040000fa
:040140004803000070
:020000040000fa
:04014400480300006c
:020000040000fa
:0402080048030000a7
:020000040000fa
:04020c0048030000a3
:020000040000fa
:04021000480300009f
:020000040000fa
:04021400480300009b
:020000040000fa
:040218004803000097
:020000040000fa
:04021c004803000093
:020000040000fa
:04022000480300008f
:020000040000fa
:04022400480300008b
:020000040000fa
:040228004803000087
:020000040000fa
:04022c004803000083
:020000040000fa
:04023000480300007f
:020000040000fa
:04023400480300007b
:020000040000fa
:040238004803000077
:020000040000fa
:04023c004803000073
:020000040000fa
:04024000480300006f
:020000040000fa
:04024400480300006b
:020000040000fa
:040248004803000067
:020000040000fa
:04024c004803000063
:020000040000fa
:04025000480300005f
:020000040000fa
:04025400040300009f
:020000040000fa
:04025800c8020000d8
:020000040000fa
:04025c004803000053
:020000040000fa
:04026000480300004f
:020000040000fa
:04026400480300004b
:020000040000fa
:040268004803000047
:020000040000fa
:04026c004803000043
:020000040000fa
:04027000480300003f
:020000040000fa
:04027400480300003b
:020000040000fa
:040278004803000037
:020000040000fa
:04027c004803000033
:020000040000fa
:04028000480300002f
:020000040000fa
:04028400480300002b
:020000040000fa
:040288004803000027
:020000040000fa
:04028c004803000023
:020000040000fa
:04029000480300001f
:020000040000fa
:04029400480300001b
:020000040000fa
:040298004803000017
:020000040000fa
:04029c004803000013
:020000040000fa
:0402a000480300000f
:020000040000fa
:0402a400480300000b
:020000040000fa
:0402a8004803000007
:020000040000fa
:0402ac004803000003
:020000040000fa
:0402b00048030000ff
:020000040000fa
:0402b40048030000fb
:020000040000fa
:0402b80048030000f7
:020000040000fa
:0402bc0048030000f3
:020000040000fa
:0402c00048030000ef
:020000040000fa
:0402c40048030000eb
:020000040000fa
:0402c80048030000e7
:020000040000fa
:0402cc0048030000e3
:020000040000fa
:0402d00048030000df
:020000040000fa
:0402d40048030000db
:020000040000fa
:0402d80048030000d7
:020000040000fa
:0402dc0048030000d3
:020000040000fa
:0402e00048030000cf
:020000040000fa
:0402e40048030000cb
:020000040000fa
:0402e80048030000c7
:020000040000fa
:0402ec0048030000c3
:020000040000fa
:0402f00048030000bf
:020000040000fa
:0402f40048030000bb
:020000040000fa
:0402f80048030000b7
:020000040000fa
:0402fc0048030000b3
:020000040000fa
:0403000048030000ae
:020000040000fa
:0403040048030000aa
:020000040000fa
:0403080048030000a6
:020000040000fa
:04030c0048030000a2
:020000040000fa
:04031000480300009e
:020000040000fa
:04031400480300009a
:020000040000fa
:040318004803000096
:020000040000fa
:04031c004803000092
:020000040000fa
:04032000480300008e
:020000040000fa
:04032400480300008a
:020000040000fa
:040328004803000086
:020000040000fa
:04032c004803000082
:020000040000fa
:04033000480300007e
:020000040000fa
:04033400480300007a
:020000040000fa
:040338004803000076
:020000040000fa
:04033c004803000072
:020000040000fa
:04034000480300006e
:020000040000fa
:04034400480300006a
:020000040000fa
:10040000ef9420000eff27000e018800000000007e
:10041000000020000000e000020032000001200087
:1004200020028800140007009b0007000000e00085
:1004300003003a00e05520000100200002003700d0
:100440000000200001002000810f70000100320038
:1004500014000700000020000000e000020032004d
:100460000000020000000000520502000000000031
:100470000040da000000fe004440a900e000200037
:100480000000e0000300320000002000a00188000e
:100490004440a800000006008a1f78008b1f7800e7
:1004a0000000060091018800800478000000eb0045
:1004b0001a003700e284440032a0b4009905ba0063
:1004c000e284440032a0b4009906ba00e2844400f9
:1004d00032a0b4000006eb00476fde00fd07b2005b
:1004e000636ce10003003a00ebff07000000eb0043
:1004f0000a003700606ce10004003a00005deb0088
:100500008b05e900fdff3e00040037006168e10053
:10051000010032000086eb000b00070019c7ba008b
:100520001905ba000e04e00003003a000a00e000da
:10053000e0ff3a0000000600fe07b2009e018800be
:100540008a047800f5ff3700395dba008b05e900b1
:100550000c003200295dba008b05e900080032006a
:100560000c00e00003003a00e284440032a0b40032
:10057000f5ff370019ddba008b05e900faff3a00f4
:100580008904e800e184440032a0b40000000600c1
:10059000809fbe00821f78000000fa00d01a8400fd
:1005a0009000780001c0a10001087800114080008f
:1005b00020408000808f500008003100a11a840084
:1005c00010408000828420006241780082487800d8
:1005d0000000e8001040880007003700c01a8400bf
:1005e0009000780001c0a100010878000668ef00c3
:1005f0000228ef000428ef000080fa004f01780085
:100600004f00be0000400600809fbe00829fbe00db
:100610000000fa00d01a84009000780001b0a10018
:1006200001087800801a84001000780062006000e1
:100630000000e00004003200801a8400900078007e
:100640000110a1000108780000c8bf008080fb00f5
:10065000b21a8400924178008280200003f1780071
:100660000040e80000e8b7000180200091407800d9
:10067000f0c3b30080cf5000010036000068ef00e7
:100680000080fa004f01be004f00be00004006008f
:0c0690000040da000000fe000000050041
:020000040000fa
:10069c0020020000220200002802000024020000b8
:0c06ac0026020000940000008400000002
:020000040000fa
:1006b8000a00fa0030079800410798000080eb0014
:1006c800000f78000000eb00100798001f003700ab
:1006d800be0090001e00900000804000104078008e
:1006e8000080fb001e0f68000040eb0040479800a8
:1006f800100037001e00780061006000004078009c
:100708000004e000050032001e0078008000d100df
:1007180010002a00008f6800030037001e007800d0
:100728000000d100000f78004e4090000040e80023
:10073800404798004e409000e74f5000edff3600cc
:100748001e0090000000e800100798009e0090002e
:100758004e009000808f5000ddff39001e007800a9
:100768000080fa00000006000400fa001007980054
:100778000000eb00000f7800010037001e0fe800b2
:100788001e0090009e007800808f5000fbff39000b
:100798000080fa00000006000000fa00701a8400c9
:1007a800900078000100a10001087800701a840008
:1007b8001001780091ff2f00810061000108780086
:1007c800701a8400900078000150a1000108780098
:1007d800701a8400900078000130a10001087800a8
:1007e800701a84009000780001f0a00001087800d9
:1007f800701a840010017800f1cf2f008100610089
:1008080001087800801a84009000780001a0a000f8
:1008180001087800901a840051002000010878002f
:10082800c01a84009000780001b0a0000108780088
:100838000080fa00000006000e00fa0000c8bf00a1
:10084800e74f50008c003600808020002007980079
:100858002e0090000080e800104078000080fb0027
:10086800c800dd002e0090006300400010407800b2
:100878000080fb0001007000300798002e009000f7
:1008880064004000104078000080fb00c800dd00d4
:100898002e00900065004000104078000080fb00aa
:1008a80001007000400798003e009000e10f5000e2
:1008b80004003200be00900000042000808f500029
:1008c8006f003e003e009000e10f5000060032002d
:1008d800010420003e009000808050004e009000ef
:1008e800808f5000680039002e009000670040009b
:1008f800104078000080fb00c800dd002e0090004a
:1009080066004000104078000080fb000100700085
:1009180050079800610020002e00900064ff070037
:10092800de009000810f500059003a0080842000ba
:1009380021c0b300014878009084200031c0b30082
:10094800014878004e0090000040780000404000c8
:1009580080407800a0842000014878003000200002
:10096800000f7800be0090001107980018003700ab
:100978001e00900080004000e08c200000804000b5
:10098800100078004800de00804078008084200055
:100998001e004000014878001e0fe8001e0090006d
:1009a80080004000e08c20000080400010007800ab
:1009b80080407800808420001e00400001487800b4
:1009c8001e0fe8001e0090000000e80010079800c5
:1009d800ce0090003e009000808040001e009000f5
:1009e800808f5000e2ff3e009e0078008084200047
:1009f8002fff0700600798006e0090008040780085
:100a0800808420001e004000014878001e0fe80086
:100a18006e0090004800de0080407800808420004e
:100a28001e004000014878001e0fe80006c8bf00fd
:100a38000004e0000e003a0010002000104088007a
:100a48009e0078002140880010c0b30006e8b70077
:100a5800a01a840081842000914078000148780021
:100a6800c01a84009000780001c0a0000108780036
:100a78000068ef000700370000000000050037009d
:100a880000000000030037000000000001003700ec
:100a9800000000000080fa00000006000000fa00d4
:100aa8003dff0700400620002fff070062ff0700f8
:040ab800feff370006
:020000040000fa
:100abc00ce0800008000000002000000111122008e
:100acc00223333004444550055666600777788001e
:100adc0088999900aaaacd00abbbbb00ccccdd0099
:100aec00ddeeee00ffff1100112222003333440033
:100afc004455550066667700778888009999aa0056
:100b0c00aacdab00bbbbcc00ccdddd00eeeeff0014
:100b1c00ff11110022223300334444005555660066
:100b2c00667777008888990099aaaa00cdabbb009c
:100b3c00bbcccc00ddddee00eeffff00111122007e
:100b4c00223333004444550055666600777788009d
:100b5c0088999900aaaacd00abbbbb00ccccdd0018
:100b6c00ddeeee00ffff000008080000c6000000ec
:100b7c000000000000080000080000000000000059
:040b8c000000000065
:020000040000fa
:0200000401f009
:04000000ffffff00ff
:020000040000fa
:0200000401f009
:04000400ffffff00fb
:020000040000fa
:0200000401f009
:04000800ffffff00f7
:020000040000fa
:0200000401f009
:04000c007aff000077
:020000040000fa
:0200000401f009
:04001000bdff000030
:020000040000fa
:0200000401f009
:040014007fffff006b
:020000040000fa
:0200000401f009
:04001800ffff0000e6
:020000040000fa
:0200000401f009
:04001c00dfff000002
:00000001FF
