:020000040000fa
:080000000002040000000000f2
:020000040000fa
:040008009a03000057
:020000040000fa
:04000c009a03000053
:020000040000fa
:040010009a0300004f
:020000040000fa
:040014009a0300004b
:020000040000fa
:040018009a03000047
:020000040000fa
:04001c009a03000043
:020000040000fa
:040020009a0300003f
:020000040000fa
:040024009a0300003b
:020000040000fa
:040028009a03000037
:020000040000fa
:04002c009a03000033
:020000040000fa
:040030009a0300002f
:020000040000fa
:040034009a0300002b
:020000040000fa
:040038009a03000027
:020000040000fa
:04003c009a03000023
:020000040000fa
:040040009a0300001f
:020000040000fa
:040044009a0300001b
:020000040000fa
:040048009a03000017
:020000040000fa
:04004c009a03000013
:020000040000fa
:040050009a0300000f
:020000040000fa
:040054002c03000079
:020000040000fa
:04005800c8020000da
:020000040000fa
:04005c009a03000003
:020000040000fa
:040060009a030000ff
:020000040000fa
:040064009a030000fb
:020000040000fa
:040068009a030000f7
:020000040000fa
:04006c009a030000f3
:020000040000fa
:040070009a030000ef
:020000040000fa
:040074009a030000eb
:020000040000fa
:040078009a030000e7
:020000040000fa
:04007c009a030000e3
:020000040000fa
:040080009a030000df
:020000040000fa
:040084009a030000db
:020000040000fa
:040088009a030000d7
:020000040000fa
:04008c009a030000d3
:020000040000fa
:040090009a030000cf
:020000040000fa
:040094009a030000cb
:020000040000fa
:040098009a030000c7
:020000040000fa
:04009c009a030000c3
:020000040000fa
:0400a0009a030000bf
:020000040000fa
:0400a4009a030000bb
:020000040000fa
:0400a8009a030000b7
:020000040000fa
:0400ac009a030000b3
:020000040000fa
:0400b0009a030000af
:020000040000fa
:0400b4009a030000ab
:020000040000fa
:0400b8009a030000a7
:020000040000fa
:0400bc009a030000a3
:020000040000fa
:0400c0009a0300009f
:020000040000fa
:0400c4009a0300009b
:020000040000fa
:0400c8009a03000097
:020000040000fa
:0400cc009a03000093
:020000040000fa
:0400d0009a0300008f
:020000040000fa
:0400d4009a0300008b
:020000040000fa
:0400d8009a03000087
:020000040000fa
:0400dc009a03000083
:020000040000fa
:0400e0009a0300007f
:020000040000fa
:0400e4009a0300007b
:020000040000fa
:0400e8009a03000077
:020000040000fa
:0400ec009a03000073
:020000040000fa
:0400f0009a0300006f
:020000040000fa
:0400f4009a0300006b
:020000040000fa
:0400f8009a03000067
:020000040000fa
:0400fc009a03000063
:020000040000fa
:040100009a0300005e
:020000040000fa
:040104009a0300005a
:020000040000fa
:040108009a03000056
:020000040000fa
:04010c009a03000052
:020000040000fa
:040110009a0300004e
:020000040000fa
:040114009a0300004a
:020000040000fa
:040118009a03000046
:020000040000fa
:04011c009a03000042
:020000040000fa
:040120009a0300003e
:020000040000fa
:040124009a0300003a
:020000040000fa
:040128009a03000036
:020000040000fa
:04012c009a03000032
:020000040000fa
:040130009a0300002e
:020000040000fa
:040134009a0300002a
:020000040000fa
:040138009a03000026
:020000040000fa
:04013c009a03000022
:020000040000fa
:040140009a0300001e
:020000040000fa
:040144009a0300001a
:020000040000fa
:040208009a03000055
:020000040000fa
:04020c009a03000051
:020000040000fa
:040210009a0300004d
:020000040000fa
:040214009a03000049
:020000040000fa
:040218009a03000045
:020000040000fa
:04021c009a03000041
:020000040000fa
:040220009a0300003d
:020000040000fa
:040224009a03000039
:020000040000fa
:040228009a03000035
:020000040000fa
:04022c009a03000031
:020000040000fa
:040230009a0300002d
:020000040000fa
:040234009a03000029
:020000040000fa
:040238009a03000025
:020000040000fa
:04023c009a03000021
:020000040000fa
:040240009a0300001d
:020000040000fa
:040244009a03000019
:020000040000fa
:040248009a03000015
:020000040000fa
:04024c009a03000011
:020000040000fa
:040250009a0300000d
:020000040000fa
:040254002c03000077
:020000040000fa
:04025800c8020000d8
:020000040000fa
:04025c009a03000001
:020000040000fa
:040260009a030000fd
:020000040000fa
:040264009a030000f9
:020000040000fa
:040268009a030000f5
:020000040000fa
:04026c009a030000f1
:020000040000fa
:040270009a030000ed
:020000040000fa
:040274009a030000e9
:020000040000fa
:040278009a030000e5
:020000040000fa
:04027c009a030000e1
:020000040000fa
:040280009a030000dd
:020000040000fa
:040284009a030000d9
:020000040000fa
:040288009a030000d5
:020000040000fa
:04028c009a030000d1
:020000040000fa
:040290009a030000cd
:020000040000fa
:040294009a030000c9
:020000040000fa
:040298009a030000c5
:020000040000fa
:04029c009a030000c1
:020000040000fa
:0402a0009a030000bd
:020000040000fa
:0402a4009a030000b9
:020000040000fa
:0402a8009a030000b5
:020000040000fa
:0402ac009a030000b1
:020000040000fa
:0402b0009a030000ad
:020000040000fa
:0402b4009a030000a9
:020000040000fa
:0402b8009a030000a5
:020000040000fa
:0402bc009a030000a1
:020000040000fa
:0402c0009a0300009d
:020000040000fa
:0402c4009a03000099
:020000040000fa
:0402c8009a03000095
:020000040000fa
:0402cc009a03000091
:020000040000fa
:0402d0009a0300008d
:020000040000fa
:0402d4009a03000089
:020000040000fa
:0402d8009a03000085
:020000040000fa
:0402dc009a03000081
:020000040000fa
:0402e0009a0300007d
:020000040000fa
:0402e4009a03000079
:020000040000fa
:0402e8009a03000075
:020000040000fa
:0402ec009a03000071
:020000040000fa
:0402f0009a0300006d
:020000040000fa
:0402f4009a03000069
:020000040000fa
:0402f8009a03000065
:020000040000fa
:0402fc009a03000061
:020000040000fa
:040300009a0300005c
:020000040000fa
:040304009a03000058
:020000040000fa
:040308009a03000054
:020000040000fa
:04030c009a03000050
:020000040000fa
:040310009a0300004c
:020000040000fa
:040314009a03000048
:020000040000fa
:040318009a03000044
:020000040000fa
:04031c009a03000040
:020000040000fa
:040320009a0300003c
:020000040000fa
:040324009a03000038
:020000040000fa
:040328009a03000034
:020000040000fa
:04032c009a03000030
:020000040000fa
:040330009a0300002c
:020000040000fa
:040334009a03000028
:020000040000fa
:040338009a03000024
:020000040000fa
:04033c009a03000020
:020000040000fa
:040340009a0300001c
:020000040000fa
:040344009a03000018
:020000040000fa
:100400004f8020000eff27000e0188000000000032
:10041000000020000000e000020032000001200087
:100420002002880014000700c40007000000e0005c
:1004300003003a0080422000010020000200370043
:100440000000200001002000810f70000100320038
:1004500014000700000020000000e000020032004d
:1004600000000200000000001e0402000000000066
:100470000040da000000fe004440a900e000200037
:100480000000e0000300320000002000a00188000e
:100490004440a800000006008a1f78008b1f7800e7
:1004a0000000060091018800800478000000eb0045
:1004b0001a003700e284440032a0b4009905ba0063
:1004c000e284440032a0b4009906ba00e2844400f9
:1004d00032a0b4000006eb00476fde00fd07b2005b
:1004e000636ce10003003a00ebff07000000eb0043
:1004f0000a003700606ce10004003a00005deb0088
:100500008b05e900fdff3e00040037006168e10053
:10051000010032000086eb000b00070019c7ba008b
:100520001905ba000e04e00003003a000a00e000da
:10053000e0ff3a0000000600fe07b2009e018800be
:100540008a047800f5ff3700395dba008b05e900b1
:100550000c003200295dba008b05e900080032006a
:100560000c00e00003003a00e284440032a0b40032
:10057000f5ff370019ddba008b05e900faff3a00f4
:100580008904e800e184440032a0b40000000600c1
:10059000809fbe00821f78000000fa00601d84006a
:1005a0009000780001c0a1000108780001802000bf
:1005b0009140780001c8bf0080cf50001e0032007b
:1005c000301d840011802000914078008180fb0064
:1005d00022802000e2c078000148780001c8bf00f6
:1005e0000080fb008000e800100028000080600010
:1005f0000000e00004003d000000e900e1ff2f00e2
:10060000008070000000e8000040780001e8b700ba
:10061000018020009140780001c8bf0080cf5000c9
:1006200009003a00501d84009000780001c0a1002c
:100630000108780004003700501d84009000780005
:1006400001c0a100010878000080fa004f01780085
:100650004f00be0000400600809fbe00821f780051
:100660000200fa00601d84009000780001b0a10033
:1006700001087800101d84001000780062006000fe
:100680000000e00004003200101d8400900078009b
:100690000110a10001087800101d840010007800ee
:1006a000610060000000e0001e00320000c8bf00d2
:1006b0000080fb008000e80010002800008060003f
:1006c0000000e00004003d000000e900e1ff2f0011
:1006d000008070000000e800004f780001c8bf00f3
:1006e0009e40780080cf50000a00320000c8bf0052
:1006f0000080fb00411d840091407800014178009a
:1007000021802000827078001e4178000180200046
:1007100082487800501d84009000780001c0a0003d
:10072000010878000080fa004f0178004f00be00f9
:10073000004006000040da000000fe000000050056
:020000040000fa
:100740002002000022020000280200002402000013
:0c0750002602000094000000840000005d
:020000040000fa
:10075c000400fa00100798000000eb00000f78006e
:10076c00010037001e0fe8001e0090009e0078006c
:10077c00808f5000fbff39000080fa00000006005b
:10078c000000fa00001d8400900078000100a10018
:10079c0001087800001d84001001780091ff2f00e3
:1007ac008100610001087800001d84009000780031
:1007bc000150a10001087800001d84009000780011
:1007cc000130a00001087800001d84009000780022
:1007dc0001f0a00001087800001d840010017800d1
:1007ec00f1cf2f008100610001087800101d8400fa
:1007fc009000780001a0a00001087800201d840062
:10080c003100200001087800501d84009000780011
:10081c0001c0a10001087800501d840090007800f0
:10082c0001b0a000010878000080fa00000006006a
:10083c000000fa00d2ff070040062000c4ff0700aa
:04084c00ffff370073
:020000040000fa
:100850000208000002000000000000000008000084
:0c0860000200000000000000000000008a
:020000040000fa
:0200000401f009
:04000000ffffff00ff
:020000040000fa
:0200000401f009
:04000400ffffff00fb
:020000040000fa
:0200000401f009
:04000800ffffff00f7
:020000040000fa
:0200000401f009
:04000c007aff000077
:020000040000fa
:0200000401f009
:04001000bdff000030
:020000040000fa
:0200000401f009
:040014007fffff006b
:020000040000fa
:0200000401f009
:04001800ffff0000e6
:020000040000fa
:0200000401f009
:04001c00dfff000002
:00000001FF
