:020000040000fa
:080000000002040000000000f2
:020000040000fa
:040008003c030000b5
:020000040000fa
:04000c003c030000b1
:020000040000fa
:040010003c030000ad
:020000040000fa
:040014003c030000a9
:020000040000fa
:040018003c030000a5
:020000040000fa
:04001c003c030000a1
:020000040000fa
:040020003c0300009d
:020000040000fa
:040024003c03000099
:020000040000fa
:040028003c03000095
:020000040000fa
:04002c003c03000091
:020000040000fa
:040030003c0300008d
:020000040000fa
:040034003c03000089
:020000040000fa
:04003800c8020000fa
:020000040000fa
:04003c003c03000081
:020000040000fa
:040040003c0300007d
:020000040000fa
:040044003c03000079
:020000040000fa
:040048003c03000075
:020000040000fa
:04004c003c03000071
:020000040000fa
:040050003c0300006d
:020000040000fa
:040054003c03000069
:020000040000fa
:040058003c03000065
:020000040000fa
:04005c003c03000061
:020000040000fa
:040060000203000097
:020000040000fa
:040064003c03000059
:020000040000fa
:040068003c03000055
:020000040000fa
:04006c003c03000051
:020000040000fa
:040070003c0300004d
:020000040000fa
:040074003c03000049
:020000040000fa
:040078003c03000045
:020000040000fa
:04007c003c03000041
:020000040000fa
:040080003c0300003d
:020000040000fa
:040084003c03000039
:020000040000fa
:040088003c03000035
:020000040000fa
:04008c003c03000031
:020000040000fa
:040090003c0300002d
:020000040000fa
:040094003c03000029
:020000040000fa
:040098003c03000025
:020000040000fa
:04009c003c03000021
:020000040000fa
:0400a0003c0300001d
:020000040000fa
:0400a4003c03000019
:020000040000fa
:0400a8003c03000015
:020000040000fa
:0400ac003c03000011
:020000040000fa
:0400b0003c0300000d
:020000040000fa
:0400b4003c03000009
:020000040000fa
:0400b8003c03000005
:020000040000fa
:0400bc003c03000001
:020000040000fa
:0400c0003c030000fd
:020000040000fa
:0400c4003c030000f9
:020000040000fa
:0400c8003c030000f5
:020000040000fa
:0400cc003c030000f1
:020000040000fa
:0400d0003c030000ed
:020000040000fa
:0400d4003c030000e9
:020000040000fa
:0400d8003c030000e5
:020000040000fa
:0400dc003c030000e1
:020000040000fa
:0400e0003c030000dd
:020000040000fa
:0400e4003c030000d9
:020000040000fa
:0400e8003c030000d5
:020000040000fa
:0400ec003c030000d1
:020000040000fa
:0400f0003c030000cd
:020000040000fa
:0400f4003c030000c9
:020000040000fa
:0400f8003c030000c5
:020000040000fa
:0400fc003c030000c1
:020000040000fa
:040100003c030000bc
:020000040000fa
:040104003c030000b8
:020000040000fa
:040108003c030000b4
:020000040000fa
:04010c003c030000b0
:020000040000fa
:040110003c030000ac
:020000040000fa
:040114003c030000a8
:020000040000fa
:040118003c030000a4
:020000040000fa
:04011c003c030000a0
:020000040000fa
:040120003c0300009c
:020000040000fa
:040124003c03000098
:020000040000fa
:040128003c03000094
:020000040000fa
:04012c003c03000090
:020000040000fa
:040130003c0300008c
:020000040000fa
:040134003c03000088
:020000040000fa
:040138003c03000084
:020000040000fa
:04013c003c03000080
:020000040000fa
:040140003c0300007c
:020000040000fa
:040144003c03000078
:020000040000fa
:040208003c030000b3
:020000040000fa
:04020c003c030000af
:020000040000fa
:040210003c030000ab
:020000040000fa
:040214003c030000a7
:020000040000fa
:040218003c030000a3
:020000040000fa
:04021c003c0300009f
:020000040000fa
:040220003c0300009b
:020000040000fa
:040224003c03000097
:020000040000fa
:040228003c03000093
:020000040000fa
:04022c003c0300008f
:020000040000fa
:040230003c0300008b
:020000040000fa
:040234003c03000087
:020000040000fa
:04023800c8020000f8
:020000040000fa
:04023c003c0300007f
:020000040000fa
:040240003c0300007b
:020000040000fa
:040244003c03000077
:020000040000fa
:040248003c03000073
:020000040000fa
:04024c003c0300006f
:020000040000fa
:040250003c0300006b
:020000040000fa
:040254003c03000067
:020000040000fa
:040258003c03000063
:020000040000fa
:04025c003c0300005f
:020000040000fa
:040260000203000095
:020000040000fa
:040264003c03000057
:020000040000fa
:040268003c03000053
:020000040000fa
:04026c003c0300004f
:020000040000fa
:040270003c0300004b
:020000040000fa
:040274003c03000047
:020000040000fa
:040278003c03000043
:020000040000fa
:04027c003c0300003f
:020000040000fa
:040280003c0300003b
:020000040000fa
:040284003c03000037
:020000040000fa
:040288003c03000033
:020000040000fa
:04028c003c0300002f
:020000040000fa
:040290003c0300002b
:020000040000fa
:040294003c03000027
:020000040000fa
:040298003c03000023
:020000040000fa
:04029c003c0300001f
:020000040000fa
:0402a0003c0300001b
:020000040000fa
:0402a4003c03000017
:020000040000fa
:0402a8003c03000013
:020000040000fa
:0402ac003c0300000f
:020000040000fa
:0402b0003c0300000b
:020000040000fa
:0402b4003c03000007
:020000040000fa
:0402b8003c03000003
:020000040000fa
:0402bc003c030000ff
:020000040000fa
:0402c0003c030000fb
:020000040000fa
:0402c4003c030000f7
:020000040000fa
:0402c8003c030000f3
:020000040000fa
:0402cc003c030000ef
:020000040000fa
:0402d0003c030000eb
:020000040000fa
:0402d4003c030000e7
:020000040000fa
:0402d8003c030000e3
:020000040000fa
:0402dc003c030000df
:020000040000fa
:0402e0003c030000db
:020000040000fa
:0402e4003c030000d7
:020000040000fa
:0402e8003c030000d3
:020000040000fa
:0402ec003c030000cf
:020000040000fa
:0402f0003c030000cb
:020000040000fa
:0402f4003c030000c7
:020000040000fa
:0402f8003c030000c3
:020000040000fa
:0402fc003c030000bf
:020000040000fa
:040300003c030000ba
:020000040000fa
:040304003c030000b6
:020000040000fa
:040308003c030000b2
:020000040000fa
:04030c003c030000ae
:020000040000fa
:040310003c030000aa
:020000040000fa
:040314003c030000a6
:020000040000fa
:040318003c030000a2
:020000040000fa
:04031c003c0300009e
:020000040000fa
:040320003c0300009a
:020000040000fa
:040324003c03000096
:020000040000fa
:040328003c03000092
:020000040000fa
:04032c003c0300008e
:020000040000fa
:040330003c0300008a
:020000040000fa
:040334003c03000086
:020000040000fa
:040338003c03000082
:020000040000fa
:04033c003c0300007e
:020000040000fa
:040340003c0300007a
:020000040000fa
:040344003c03000076
:020000040000fa
:10040000af9520000ef527000e01880000000000c7
:10041000000020000000e000020032000001200087
:100420002002880014000700950007000000e0008b
:1004300003003a00809020000100200002003700f5
:100440000000200001002000810f70000100320038
:1004500014000700000020000000e000020032004d
:100460000000020000000000280902000000000057
:100470000040da000000fe004440a900c002200055
:100480000000e0000300320000002000a00188000e
:100490004440a800000006008a1f78008b1f7800e7
:1004a0000000060091018800800478000000eb0045
:1004b0001a003700e284440032a0b4009905ba0063
:1004c000e284440032a0b4009906ba00e2844400f9
:1004d00032a0b4000006eb00476fde00fd07b2005b
:1004e000636ce10003003a00ebff07000000eb0043
:1004f0000a003700606ce10004003a00005deb0088
:100500008b05e900fdff3e00040037006168e10053
:10051000010032000086eb000b00070019c7ba008b
:100520001905ba000e04e00003003a000a00e000da
:10053000e0ff3a0000000600fe07b2009e018800be
:100540008a047800f5ff3700395dba008b05e900b1
:100550000c003200295dba008b05e900080032006a
:100560000c00e00003003a00e284440032a0b40032
:10057000f5ff370019ddba008b05e900faff3a00f4
:100580008904e800e184440032a0b40000000600c1
:100590003600f800809fbe00829fbe00849fbe0090
:1005a000869fbe000000fa00a01a84009000780028
:1005b0000140a10001087800501a84001000780062
:1005c000620060000000e00004003200501a840065
:1005d000900078000110a10001087800810020003f
:1005e00000ff2700910007000080fa004f03be00c3
:1005f0004f02be004f01be004f00be003600f900a2
:10060000004006003600f800809fbe00829fbe00ba
:10061000849fbe00869fbe000000fa00a01a8400de
:100620009000780001e0a10001087800101b840010
:100630009000780001f0a10001087800000000009f
:10064000501a8400900078000010200000806000a4
:100650000000e000faff3200900007000080fa007e
:100660004f03be004f02be004f01be004f00be0050
:100670003600f900004006000040da000000fe00ed
:040680000000050071
:020000040000fa
:10068400d4020000d2020000d602000020020000c2
:1006940022020000280200002402000026020000ba
:1006a4009400000084000000800300008203000026
:1006b4008403000086030000880300008a0300000e
:1006c4008c0300008e0300009003000092030000de
:0806d4009403000096030000ee
:020000040000fa
:1006dc000200fa00000f78000ec8bf000004e00012
:1006ec000c003a00404080009e007800808f500043
:1006fc0008003e000a28ef009e0078006140880048
:10070c0010c0b3000ee8b70061408000304080009c
:10071c00ed0107000080fa00000006000a00fa0054
:10072c0030079800410798000080eb00000f78001c
:10073c000000eb00100798001f003700be0090006f
:10074c001e00900000804000104078000080fb00ec
:10075c001e0f68000040eb00404798001000370067
:10076c001e00780061006000004078000004e0008a
:10077c00050032001e0078008000d10010002a0015
:10078c00008f6800030037001e0078000000d100c5
:10079c00000f78004e4090000040e8004047980061
:1007ac004e409000e74f5000edff36001e009000c9
:1007bc000000e800100798009e0090004e0090008a
:1007cc00808f5000ddff39001e0078000080fa0099
:1007dc00000006000800fa00000f780011079800ce
:1007ec0022079800330798009e007800014088008b
:1007fc009e009000114088000468ef00ae0090004d
:10080c0031408800be009000414088000a28ef006b
:10081c000c28ef000e68ef000080fa0000000600c4
:10082c000600fa001007980021079800104080007d
:10083c00ae009000808f5000020036000468ef007c
:10084c00110037000000eb00000f780007003700a4
:10085c00004080001e0040009e0090009e804000e2
:10086c0091407800014878001e0fe8002e0090009f
:10087c009e007800808f5000f5ff39002e0090000c
:10088c000040780004e8b7000080fa000000060081
:10089c000000fa00ce0107000e68ef000a28ef00f6
:1008ac000c28ef000080fa00000006001e00fa0081
:1008bc0004c8bf00e74f5000e00036000140800044
:1008cc00310798003e009000104078000080fb003b
:1008dc00400798003e0090000000e800904078002f
:1008ec00214f98002e4890000080fb00e30f500031
:1008fc0003003200e60f50007d003200cd003700bf
:10090c003e0090000080e800104078000080fb0062
:10091c00c800dd003e0090006300400010407800ed
:10092c000080fb0001007000600798003e00900002
:10093c0064004000104078000080fb00c800dd001f
:10094c003e00900065004000104078000080fb00e5
:10095c0001007000700798003e0090006700400096
:10096c00104078000080fb00c800dd003e009000c5
:10097c0066004000104078000080fb000100700011
:10098c00000f98004e009000e10f5000a9003a00b3
:10099c002e489000e34f5000a6003a006e009000e5
:1009ac00e10f500004003200ee0090001004200013
:1009bc00808f50009f003e006e009000e10f5000b1
:1009cc0006003200110420006e0090008080500060
:1009dc007e009000808f500096003900610020004e
:1009ec003e0090004dff07008e089000810f5000d4
:1009fc008f003a003040800011c0b30001487800ed
:100a0c00304080000000e80031c0b300014878009d
:100a1c00304080008080e8007e009000004078002c
:100a2c00004040008048780030002000000f780023
:100a3c00ee00900011079800130037001e00900084
:100a4c006a010700100f9800304080001e00400023
:100a5c009e089000c808de008140780001487800ac
:100a6c001e0fe800304080001e0040009e089000e1
:100a7c0081407800014878001e0fe8001e009000ad
:100a8c000000e80010079800ee0090007e00900037
:100a9c00808040001e009000808f5000e7ff3e00d9
:100aac00304080009e0078001cff0700200f98004b
:100abc00304080001e004000ae089000814078005d
:100acc00014878001e0fe800304080001e004000f6
:100adc00ae089000c808de0081407800014878001c
:100aec001e0fe8001e007800f9fe070051003700c9
:100afc003e0090000080e800104078000080fb0071
:100b0c00c800dd003e0090006300400010407800fb
:100b1c000080fb0001007000300f98003e00900038
:100b2c0064004000104078000080fb00c800dd002d
:100b3c003e00900065004000104078000080fb00f3
:100b4c0001007000400f98003e00900067004000cc
:100b5c00104078000080fb00c800dd003e009000d3
:100b6c0066004000104078000080fb00010070001f
:100b7c00500f98004e009000e10f50002d003a00ed
:100b8c00610020003e009000e4fe0700de089000ab
:100b9c00810f500027003a00ce0890003e089000cc
:100bac005e0107000000eb00200798000b003700e7
:100bbc00314080002e009000008040003e019000eb
:100bcc00ae0090008100410091407800014878000f
:100bdc002e0090000000e800200798002e009000e6
:100bec00e50f5000f2ff360030408000610020001d
:100bfc00cafe0700600f980030408000660040007d
:100c0c00ee08900081407800014878003040800068
:100c1c0067004000ee089000c808de0081407800b4
:100c2c000148780080002000a9fe07000100370071
:100c3c00000000000468ef00010037000000000015
:100c4c000080fa00000006000000fa00a01a8400e0
:100c5c00900078000140a10001087800b01a8400cf
:100c6c009000780001f0a10001087800b01a84000f
:100c7c009000780001e0a00001087800b01a840010
:100c8c009000780001d0a10001087800b01a84000f
:100c9c0010017800f1fc2f00810061000108780040
:100cac00b01a840010017800c1ff2f008100610090
:100cbc0001087800c01a84001001780001f82f0098
:100ccc0081006100b100b30001087800f01a8400c3
:100cdc00811a840001087800001b84001001780040
:100cec0001c02f00810061007100b3000108780081
:100cfc00d01a8400017f200001087800901a84002b
:100d0c00900078000140a00001087800b01a84001f
:100d1c009000780001f0a000010878000080fa0033
:100d2c00000006000000fa00a01a84009000780071
:100d3c0001e0a10001087800101b840090007800ed
:100d4c0001f0a10001087800101b840090007800cd
:100d5c0001e0a00001087800101b840090007800ce
:100d6c0001d0a00001087800101b8400100178004d
:100d7c00f1fc2f008100610001087800101b840039
:100d8c0010017800c1ff2f00810061000100a0005c
:100d9c0001087800201b84001001780001f82f0056
:100dac0081006100c100b30001087800501b840071
:100dbc00711a840001087800301b84000176200031
:100dcc0001087800901a84009000780001e0a000df
:100ddc00010878000080fa00000006000000fa000c
:100dec00401a8400900078000100a10001087800ee
:100dfc00401a84001001780091ff2f0081006100df
:100e0c0001087800401a8400900078000150a1007d
:100e1c0001087800401a8400900078000130a0008e
:100e2c0001087800401a84009000780001f0a000be
:100e3c0001087800401a840010017800f1cf2f00cf
:100e4c008100610001087800501a8400900078003d
:100e5c0001a0a00001087800601a84007100200035
:100e6c0001087800901a84009000780001b0a1006d
:100e7c000108780074ff0700901a84009000780035
:100e8c0001c0a10001087800a6ff07000080fa004d
:100e9c00000006000200fa00004f7800000000007d
:100eac00501a840090007800001020000080600030
:100ebc000000e000faff3200701a84001e4878002f
:100ecc000080fa00000006000600fa0010079800e7
:100edc00210798002e0090000000e0000400320072
:100eec00ae00900070082000808f50000200360089
:100efc0067fe07002d003700101b8400900078005f
:100f0c0001f0a100010878000000eb00000f780050
:100f1c00070037001e0090001e0040009040780033
:100f2c0000f627001e004000014878001e0fe80064
:100f3c002e0090009e007800808f5000f5ff390045
:100f4c00601b8400ae0090000101e900f13f20001d
:100f5c0001016100f13f20008100610090017800e7
:100f6c0002c02f00028161008280700001087800ad
:100f7c00301b84000176200001087800a01a840040
:100f8c009000780001e0a10001087800101b84009b
:100f9c009000780001f0a00001087800201b84006c
:100fac009000780001f0a000010878000080fa00a1
:100fbc00000006000000fa00901a840090007800ef
:100fcc0001c0a000010878000080fa0000000600b3
:100fdc000000fa00901a84009000780001c0a10073
:100fec00010878000080fa00000006000200fa00f8
:100ffc00000f78001e0078008000eb00c20020007b
:10100c0003002000820f5000838f580040003e00e8
:10101c00006001000c003700150037001e0037007f
:10102c002700370028003700290037002a00370036
:10103c002b0037002c0037002d0037002e00370016
:10104c002f00370030003700101a84009000780011
:10105c0000082000008060000000e0000200320068
:10106c000000eb002b0037000080eb00290037005c
:10107c00101a8400900078000004200000806000aa
:10108c000000e000020032000000eb0021003700fd
:10109c000080eb001f003700101a840090007800cd
:1010ac0000002200008060000000e000020032001e
:1010bc000000eb00170037000080eb001500370034
:1010cc00c046800013003700d04680001100370066
:1010dc00e04680000f003700f04680000d0037001e
:1010ec00004780000b0037001047800009003700d4
:1010fc00204780000700370030478000050037008c
:10110c004047800003003700504780000100370043
:10111c000000eb000080fa00000006000400fa005a
:10112c00000f7800110798001e0078006101b800cc
:10113c0000fc2f00f1ff2f000200400083804800cc
:10114c009200200003002000820f5000838f580073
:10115c0029003e0000600100090037000b00370039
:10116c000d0037000f003700110037001300370057
:10117c001500370017003700190037001b00370027
:10118c009e009000c14688001c0037009e00900015
:10119c00d1468800190037009e009000e146880077
:1011ac00160037009e009000f146880013003700af
:1011bc009e00900001478800100037009e009000b0
:1011cc00114788000d0037009e00900021478800d1
:1011dc000a0037009e009000314788000700370056
:1011ec009e00900041478800040037009e0090004c
:1011fc005147880001003700000000000080fa0011
:04120c0000000600d8
:020000040000fa
:10121000000800001000000000000000f07f000047
:101220000800000000000000607f0000880000004f
:1012300000000000d808000082000000000000004c
:1012400010080000c80000000000000000000000be
:020000040000fa
:101250000000fa007308200002852000010420002d
:10126000008120005efd0700dffe070092fd070001
:04127000feff370046
:020000040000fa
:0200000401f009
:04000000ffffff00ff
:020000040000fa
:0200000401f009
:04000400ffffff00fb
:020000040000fa
:0200000401f009
:04000800ffffff00f7
:020000040000fa
:0200000401f009
:04000c007aff000077
:020000040000fa
:0200000401f009
:04001000bdff000030
:020000040000fa
:0200000401f009
:040014007fffff006b
:020000040000fa
:0200000401f009
:04001800ffff0000e6
:020000040000fa
:0200000401f009
:04001c00dfff000002
:00000001FF
