:020000040000fa
:080000000002040000000000f2
:020000040000fa
:0400080026030000cb
:020000040000fa
:04000c0026030000c7
:020000040000fa
:0400100026030000c3
:020000040000fa
:0400140026030000bf
:020000040000fa
:0400180026030000bb
:020000040000fa
:04001c0026030000b7
:020000040000fa
:0400200026030000b3
:020000040000fa
:0400240026030000af
:020000040000fa
:0400280026030000ab
:020000040000fa
:04002c0026030000a7
:020000040000fa
:0400300026030000a3
:020000040000fa
:04003400260300009f
:020000040000fa
:04003800260300009b
:020000040000fa
:04003c002603000097
:020000040000fa
:040040002603000093
:020000040000fa
:04004400260300008f
:020000040000fa
:04004800260300008b
:020000040000fa
:04004c002603000087
:020000040000fa
:040050002603000083
:020000040000fa
:04005400c8020000de
:020000040000fa
:04005800020300009f
:020000040000fa
:04005c002603000077
:020000040000fa
:040060002603000073
:020000040000fa
:04006400260300006f
:020000040000fa
:04006800260300006b
:020000040000fa
:04006c002603000067
:020000040000fa
:040070002603000063
:020000040000fa
:04007400260300005f
:020000040000fa
:04007800260300005b
:020000040000fa
:04007c002603000057
:020000040000fa
:040080002603000053
:020000040000fa
:04008400260300004f
:020000040000fa
:04008800260300004b
:020000040000fa
:04008c002603000047
:020000040000fa
:040090002603000043
:020000040000fa
:04009400260300003f
:020000040000fa
:04009800260300003b
:020000040000fa
:04009c002603000037
:020000040000fa
:0400a0002603000033
:020000040000fa
:0400a400260300002f
:020000040000fa
:0400a800260300002b
:020000040000fa
:0400ac002603000027
:020000040000fa
:0400b0002603000023
:020000040000fa
:0400b400260300001f
:020000040000fa
:0400b800260300001b
:020000040000fa
:0400bc002603000017
:020000040000fa
:0400c0002603000013
:020000040000fa
:0400c400260300000f
:020000040000fa
:0400c800260300000b
:020000040000fa
:0400cc002603000007
:020000040000fa
:0400d0002603000003
:020000040000fa
:0400d40026030000ff
:020000040000fa
:0400d80026030000fb
:020000040000fa
:0400dc0026030000f7
:020000040000fa
:0400e00026030000f3
:020000040000fa
:0400e40026030000ef
:020000040000fa
:0400e80026030000eb
:020000040000fa
:0400ec0026030000e7
:020000040000fa
:0400f00026030000e3
:020000040000fa
:0400f40026030000df
:020000040000fa
:0400f80026030000db
:020000040000fa
:0400fc0026030000d7
:020000040000fa
:0401000026030000d2
:020000040000fa
:0401040026030000ce
:020000040000fa
:0401080026030000ca
:020000040000fa
:04010c0026030000c6
:020000040000fa
:0401100026030000c2
:020000040000fa
:0401140026030000be
:020000040000fa
:0401180026030000ba
:020000040000fa
:04011c0026030000b6
:020000040000fa
:0401200026030000b2
:020000040000fa
:0401240026030000ae
:020000040000fa
:0401280026030000aa
:020000040000fa
:04012c0026030000a6
:020000040000fa
:0401300026030000a2
:020000040000fa
:04013400260300009e
:020000040000fa
:04013800260300009a
:020000040000fa
:04013c002603000096
:020000040000fa
:040140002603000092
:020000040000fa
:04014400260300008e
:020000040000fa
:0402080026030000c9
:020000040000fa
:04020c0026030000c5
:020000040000fa
:0402100026030000c1
:020000040000fa
:0402140026030000bd
:020000040000fa
:0402180026030000b9
:020000040000fa
:04021c0026030000b5
:020000040000fa
:0402200026030000b1
:020000040000fa
:0402240026030000ad
:020000040000fa
:0402280026030000a9
:020000040000fa
:04022c0026030000a5
:020000040000fa
:0402300026030000a1
:020000040000fa
:04023400260300009d
:020000040000fa
:040238002603000099
:020000040000fa
:04023c002603000095
:020000040000fa
:040240002603000091
:020000040000fa
:04024400260300008d
:020000040000fa
:040248002603000089
:020000040000fa
:04024c002603000085
:020000040000fa
:040250002603000081
:020000040000fa
:04025400c8020000dc
:020000040000fa
:04025800020300009d
:020000040000fa
:04025c002603000075
:020000040000fa
:040260002603000071
:020000040000fa
:04026400260300006d
:020000040000fa
:040268002603000069
:020000040000fa
:04026c002603000065
:020000040000fa
:040270002603000061
:020000040000fa
:04027400260300005d
:020000040000fa
:040278002603000059
:020000040000fa
:04027c002603000055
:020000040000fa
:040280002603000051
:020000040000fa
:04028400260300004d
:020000040000fa
:040288002603000049
:020000040000fa
:04028c002603000045
:020000040000fa
:040290002603000041
:020000040000fa
:04029400260300003d
:020000040000fa
:040298002603000039
:020000040000fa
:04029c002603000035
:020000040000fa
:0402a0002603000031
:020000040000fa
:0402a400260300002d
:020000040000fa
:0402a8002603000029
:020000040000fa
:0402ac002603000025
:020000040000fa
:0402b0002603000021
:020000040000fa
:0402b400260300001d
:020000040000fa
:0402b8002603000019
:020000040000fa
:0402bc002603000015
:020000040000fa
:0402c0002603000011
:020000040000fa
:0402c400260300000d
:020000040000fa
:0402c8002603000009
:020000040000fa
:0402cc002603000005
:020000040000fa
:0402d0002603000001
:020000040000fa
:0402d40026030000fd
:020000040000fa
:0402d80026030000f9
:020000040000fa
:0402dc0026030000f5
:020000040000fa
:0402e00026030000f1
:020000040000fa
:0402e40026030000ed
:020000040000fa
:0402e80026030000e9
:020000040000fa
:0402ec0026030000e5
:020000040000fa
:0402f00026030000e1
:020000040000fa
:0402f40026030000dd
:020000040000fa
:0402f80026030000d9
:020000040000fa
:0402fc0026030000d5
:020000040000fa
:0403000026030000d0
:020000040000fa
:0403040026030000cc
:020000040000fa
:0403080026030000c8
:020000040000fa
:04030c0026030000c4
:020000040000fa
:0403100026030000c0
:020000040000fa
:0403140026030000bc
:020000040000fa
:0403180026030000b8
:020000040000fa
:04031c0026030000b4
:020000040000fa
:0403200026030000b0
:020000040000fa
:0403240026030000ac
:020000040000fa
:0403280026030000a8
:020000040000fa
:04032c0026030000a4
:020000040000fa
:0403300026030000a0
:020000040000fa
:04033400260300009c
:020000040000fa
:040338002603000098
:020000040000fa
:04033c002603000094
:020000040000fa
:040340002603000090
:020000040000fa
:04034400260300008c
:020000040000fa
:10040000af9520000eff27000e01880000000000bd
:10041000000020000000e000020032000001200087
:1004200020028800140007008a0007000000e00096
:1004300003003a00207a200001002000020037006b
:100440000000200001002000810f70000100320038
:1004500014000700000020000000e000020032004d
:100460000000020000000000b607020000000000cb
:100470000040da000000fe004440a90040012000d6
:100480000000e0000300320000002000a00188000e
:100490004440a800000006008a1f78008b1f7800e7
:1004a0000000060091018800800478000000eb0045
:1004b0001a003700e284440032a0b4009905ba0063
:1004c000e284440032a0b4009906ba00e2844400f9
:1004d00032a0b4000006eb00476fde00fd07b2005b
:1004e000636ce10003003a00ebff07000000eb0043
:1004f0000a003700606ce10004003a00005deb0088
:100500008b05e900fdff3e00040037006168e10053
:10051000010032000086eb000b00070019c7ba008b
:100520001905ba000e04e00003003a000a00e000da
:10053000e0ff3a0000000600fe07b2009e018800be
:100540008a047800f5ff3700395dba008b05e900b1
:100550000c003200295dba008b05e900080032006a
:100560000c00e00003003a00e284440032a0b40032
:10057000f5ff370019ddba008b05e900faff3a00f4
:100580008904e800e184440032a0b40000000600c1
:100590003600f800809fbe00829fbe00849fbe0090
:1005a000869fbe000000fa00f019840090007800d9
:1005b00001b0a10001087800a019840010007800a3
:1005c000620060000000e00004003200a019840016
:1005d000900078000110a10001087800d019840073
:1005e00010407800670007000080fa004f03be004b
:1005f0004f02be004f01be004f00be003600f900a2
:10060000004006003600f800809fbe00829fbe00ba
:10061000849fbe00869fbe000000fa00f01984008f
:100620009000780001c0a100010878006700070071
:100630000080fa004f03be004f02be004f01be0013
:100640004f00be003600f900004006000040da000e
:080650000000fe00000005009f
:020000040000fa
:10065800d4020000d2020000d602000020020000ee
:1006680022020000280200002402000026020000e6
:08067800940000008400000062
:020000040000fa
:100680000a00fa0030079800410798000080eb004c
:10069000000f78000000eb00100798001f003700e3
:1006a000be0090001e0090000080400010407800c6
:1006b0000080fb001e0f68000040eb0040479800e0
:1006c000100037001e0078006100600000407800d4
:1006d0000004e000050032001e0078008000d10018
:1006e00010002a00008f6800030037001e00780009
:1006f0000000d100000f78004e4090000040e8005c
:10070000404798004e409000e74f5000edff360004
:100710001e0090000000e800100798009e00900066
:100720004e009000808f5000ddff39001e007800e1
:100730000080fa00000006000800fa00000f7800b0
:100740001107980022079800330798009e00780050
:10075000014088009e009000114088000468ef006e
:10076000ae00900031408800be00900041408800fb
:100770000a28ef000c28ef000e68ef000080fa0056
:10078000000006000200fa00004f780004c8bf0015
:100790008080fb0010408000808f500008003100f6
:1007a0000240800004c8bf008080fb00810041003f
:1007b0009e4878000040e80004e8b70001003700d8
:1007c0000468ef000080fa00000006000000fa0054
:1007d0005140800060408000808f5000090031004f
:1007e000314080005040800080804000914078007f
:1007f0000000e8005040880001407800b601070082
:1008000004003700c80107000e68ef000a28ef0057
:100810000c28ef000080fa00000006001e00fa001d
:1008200004c8bf00e74f5000fa00360001408000c6
:10083000310798003e009000104078000080fb00d7
:10084000400798003e0090000000e80090407800cb
:10085000214f98002e4890000080fb00e30f5000cd
:1008600003003200e60f500088003200e700370036
:100870003e0090000080e800104078000080fb00ff
:10088000c800dd003e00900063004000104078008a
:100890000080fb0001007000600798003e0090009f
:1008a00064004000104078000080fb00c800dd00bc
:1008b0003e00900065004000104078000080fb0082
:1008c00001007000700798003e0090006700400033
:1008d000104078000080fb00c800dd003e00900062
:1008e00066004000104078000080fb0001007000ae
:1008f000000f98004e009000e10f5000c3003a0036
:100900002e489000e34f5000c0003a006e00900067
:10091000e10f500004003200ee00900010042000af
:10092000808f5000b9003e006e009000e10f500033
:1009300006003200110420006e00900080805000fc
:100940007e009000808f5000b000390061002000d0
:100950003e0090004aff07008e089000810f500073
:10096000a5003a003040800011c0b3000148780073
:10097000304080000000e80031c0b300014878003a
:10098000304080008080e8007e00900000407800c9
:10099000004040008048780030002000000f7800c0
:1009a000ee00900011079800130037001e00900021
:1009b0009b000700100f9800304080001e00400090
:1009c0009e089000c808de00814078000148780049
:1009d0001e0fe800304080001e0040009e0890007e
:1009e00081407800014878001e0fe8001e0090004a
:1009f0000000e80010079800ee0090007e009000d4
:100a0000808040001e009000808f5000e7ff3e0075
:100a1000304080009e00780019ff0700200f9800ea
:100a2000304080001e004000ae08900081407800f9
:100a3000014878001e0fe800304080001e00400092
:100a4000ae089000c808de008140780001487800b8
:100a50001e0fe8000ec8bf000004e00068003a0066
:100a600010002000504088009e00780061408800ff
:100a700010c0b3000ee8b70030408000104078008e
:100a80001501070021010700600037003e009000bb
:100a90000080e800104078000080fb00c800dd0006
:100aa0003e00900063004000104078000080fb0092
:100ab00001007000300f98003e009000640040007c
:100ac000104078000080fb00c800dd003e00900070
:100ad00065004000104078000080fb0001007000bd
:100ae000400f98003e0090006700400010407800e2
:100af0000080fb00c800dd003e0090006600400062
:100b0000104078000080fb0001007000500f98003a
:100b10004e009000e10f50003c003a0061002000c0
:100b20003e009000d6fe0700de089000810f5000c6
:100b300036003a00ce0890003e089000840007007e
:100b40000000eb00200798000b00370031408000c8
:100b50002e009000008040003e019000ae0090000a
:100b60008100410091407800014878002e009000fb
:100b70000000e800200798002e009000e50f5000cc
:100b8000f2ff36003040800061002000bcfe07000c
:100b9000600f98003040800066004000ee08900032
:100ba00081407800014878003040800067004000b4
:100bb000ee089000c808de00814078000148780007
:100bc0000ec8bf000004e0000f003a001000200033
:100bd00050408800800020006040880010c0b300b2
:100be0000ee8b7003040800010407800ba000700df
:100bf000c6000700050037000000000003003700b2
:100c00000000000001003700000000000468ef0051
:100c100001003700000000000080fa00000006001c
:100c20000200fa00000f78001e0078008000eb0040
:100c3000c200200003002000820f5000838f580064
:100c400040003e00006001000c0037001500370036
:100c50001e00370027003700280037002900370022
:100c60002a0037002b0037002c0037002d003700fa
:100c70002e0037002f003700300037006019840045
:100c80009000780000082000008060000000e00074
:100c9000020032000000eb002b0037000080eb0068
:100ca00029003700601984009000780000042000bb
:100cb000008060000000e000020032000000eb0055
:100cc000210037000080eb001f003700601984000e
:100cd0009000780000002200008060000000e0002a
:100ce000020032000000eb00170037000080eb002c
:100cf00015003700c046800013003700d046800042
:100d000011003700e04680000f003700f0468000f9
:100d10000d003700004780000b00370010478000af
:100d20000900370020478000070037003047800067
:100d3000050037004047800003003700504780001f
:100d4000010037000000eb000080fa000000060000
:100d50000400fa00000f7800110798001e007800c8
:100d60006101b80000fc2f00f1ff2f0002004000dd
:100d7000838048009200200003002000820f500072
:100d8000838f580029003e000060010009003700f1
:100d90000b0037000d0037000f003700110037003f
:100da000130037001500370017003700190037000f
:100db0001b0037009e009000c14688001c003700d1
:100dc0009e009000d1468800190037009e009000d8
:100dd000e1468800160037009e009000f14688002a
:100de000130037009e009000014788001000370074
:100df0009e009000114788000d0037009e00900073
:100e0000214788000a0037009e0090003147880083
:100e1000070037009e00900041478800040037001b
:100e20009e0090005147880001003700000000003c
:100e30000080fa00000006000000fa00901984000b
:100e4000900078000100a10001087800901984004a
:100e50001001780091ff2f008100610001087800e7
:100e600090198400900078000150a10001087800da
:100e700090198400900078000130a00001087800eb
:100e8000901984009000780001f0a000010878001b
:100e90009019840010017800f1cf2f0081006100cb
:100ea00001087800a01984009000780001a0a0003b
:100eb00001087800b0198400710020000108780052
:100ec000e01984009000780001b0a00001087800cb
:100ed0000080fa00000006000200fa00004f7800cf
:100ee00000000000a019840090007800001020008d
:100ef000008060000000e000faff3200c0198400aa
:100f00001e4878000080fa00000006000000fa0089
:100f1000e01984009000780001c0a000010878006a
:100f20000080fa00000006000000fa00e0198400ca
:100f30009000780001c0a100010878000080fa004c
:040f400000000600a7
:020000040000fa
:100f4400000800001000000000000000d8080000a5
:100f5400820000000000000010080000c80000002b
:080f6400000000000000000085
:020000040000fa
:100f6c000000fa00b1ff0700730820000285200082
:100f7c000104200000812000ecfd070024fe070086
:040f8c00feff37002d
:020000040000fa
:0200000401f009
:04000000ffffff00ff
:020000040000fa
:0200000401f009
:04000400ffffff00fb
:020000040000fa
:0200000401f009
:04000800ffffff00f7
:020000040000fa
:0200000401f009
:04000c007aff000077
:020000040000fa
:0200000401f009
:04001000bdff000030
:020000040000fa
:0200000401f009
:040014007fffff006b
:020000040000fa
:0200000401f009
:04001800ffff0000e6
:020000040000fa
:0200000401f009
:04001c00dfff000002
:00000001FF
