:020000040000fa
:080000000002040000000000f2
:020000040000fa
:04000800560300009b
:020000040000fa
:04000c005603000097
:020000040000fa
:040010005603000093
:020000040000fa
:04001400560300008f
:020000040000fa
:04001800560300008b
:020000040000fa
:04001c005603000087
:020000040000fa
:040020005603000083
:020000040000fa
:04002400560300007f
:020000040000fa
:04002800560300007b
:020000040000fa
:04002c005603000077
:020000040000fa
:040030005603000073
:020000040000fa
:04003400560300006f
:020000040000fa
:04003800560300006b
:020000040000fa
:04003c005603000067
:020000040000fa
:040040005603000063
:020000040000fa
:04004400560300005f
:020000040000fa
:04004800560300005b
:020000040000fa
:04004c005603000057
:020000040000fa
:040050005603000053
:020000040000fa
:0400540004030000a1
:020000040000fa
:04005800c8020000da
:020000040000fa
:04005c005603000047
:020000040000fa
:040060005603000043
:020000040000fa
:04006400560300003f
:020000040000fa
:04006800560300003b
:020000040000fa
:04006c005603000037
:020000040000fa
:040070005603000033
:020000040000fa
:04007400560300002f
:020000040000fa
:04007800560300002b
:020000040000fa
:04007c005603000027
:020000040000fa
:040080005603000023
:020000040000fa
:04008400560300001f
:020000040000fa
:04008800560300001b
:020000040000fa
:04008c005603000017
:020000040000fa
:040090005603000013
:020000040000fa
:04009400560300000f
:020000040000fa
:04009800560300000b
:020000040000fa
:04009c005603000007
:020000040000fa
:0400a0005603000003
:020000040000fa
:0400a40056030000ff
:020000040000fa
:0400a80056030000fb
:020000040000fa
:0400ac0056030000f7
:020000040000fa
:0400b00056030000f3
:020000040000fa
:0400b40056030000ef
:020000040000fa
:0400b80056030000eb
:020000040000fa
:0400bc0056030000e7
:020000040000fa
:0400c00056030000e3
:020000040000fa
:0400c40056030000df
:020000040000fa
:0400c80056030000db
:020000040000fa
:0400cc0056030000d7
:020000040000fa
:0400d00056030000d3
:020000040000fa
:0400d40056030000cf
:020000040000fa
:0400d80056030000cb
:020000040000fa
:0400dc0056030000c7
:020000040000fa
:0400e00056030000c3
:020000040000fa
:0400e40056030000bf
:020000040000fa
:0400e80056030000bb
:020000040000fa
:0400ec0056030000b7
:020000040000fa
:0400f00056030000b3
:020000040000fa
:0400f40056030000af
:020000040000fa
:0400f80056030000ab
:020000040000fa
:0400fc0056030000a7
:020000040000fa
:0401000056030000a2
:020000040000fa
:04010400560300009e
:020000040000fa
:04010800560300009a
:020000040000fa
:04010c005603000096
:020000040000fa
:040110005603000092
:020000040000fa
:04011400560300008e
:020000040000fa
:04011800560300008a
:020000040000fa
:04011c005603000086
:020000040000fa
:040120005603000082
:020000040000fa
:04012400560300007e
:020000040000fa
:04012800560300007a
:020000040000fa
:04012c005603000076
:020000040000fa
:040130005603000072
:020000040000fa
:04013400560300006e
:020000040000fa
:04013800560300006a
:020000040000fa
:04013c005603000066
:020000040000fa
:040140005603000062
:020000040000fa
:04014400560300005e
:020000040000fa
:040208005603000099
:020000040000fa
:04020c005603000095
:020000040000fa
:040210005603000091
:020000040000fa
:04021400560300008d
:020000040000fa
:040218005603000089
:020000040000fa
:04021c005603000085
:020000040000fa
:040220005603000081
:020000040000fa
:04022400560300007d
:020000040000fa
:040228005603000079
:020000040000fa
:04022c005603000075
:020000040000fa
:040230005603000071
:020000040000fa
:04023400560300006d
:020000040000fa
:040238005603000069
:020000040000fa
:04023c005603000065
:020000040000fa
:040240005603000061
:020000040000fa
:04024400560300005d
:020000040000fa
:040248005603000059
:020000040000fa
:04024c005603000055
:020000040000fa
:040250005603000051
:020000040000fa
:04025400040300009f
:020000040000fa
:04025800c8020000d8
:020000040000fa
:04025c005603000045
:020000040000fa
:040260005603000041
:020000040000fa
:04026400560300003d
:020000040000fa
:040268005603000039
:020000040000fa
:04026c005603000035
:020000040000fa
:040270005603000031
:020000040000fa
:04027400560300002d
:020000040000fa
:040278005603000029
:020000040000fa
:04027c005603000025
:020000040000fa
:040280005603000021
:020000040000fa
:04028400560300001d
:020000040000fa
:040288005603000019
:020000040000fa
:04028c005603000015
:020000040000fa
:040290005603000011
:020000040000fa
:04029400560300000d
:020000040000fa
:040298005603000009
:020000040000fa
:04029c005603000005
:020000040000fa
:0402a0005603000001
:020000040000fa
:0402a40056030000fd
:020000040000fa
:0402a80056030000f9
:020000040000fa
:0402ac0056030000f5
:020000040000fa
:0402b00056030000f1
:020000040000fa
:0402b40056030000ed
:020000040000fa
:0402b80056030000e9
:020000040000fa
:0402bc0056030000e5
:020000040000fa
:0402c00056030000e1
:020000040000fa
:0402c40056030000dd
:020000040000fa
:0402c80056030000d9
:020000040000fa
:0402cc0056030000d5
:020000040000fa
:0402d00056030000d1
:020000040000fa
:0402d40056030000cd
:020000040000fa
:0402d80056030000c9
:020000040000fa
:0402dc0056030000c5
:020000040000fa
:0402e00056030000c1
:020000040000fa
:0402e40056030000bd
:020000040000fa
:0402e80056030000b9
:020000040000fa
:0402ec0056030000b5
:020000040000fa
:0402f00056030000b1
:020000040000fa
:0402f40056030000ad
:020000040000fa
:0402f80056030000a9
:020000040000fa
:0402fc0056030000a5
:020000040000fa
:0403000056030000a0
:020000040000fa
:04030400560300009c
:020000040000fa
:040308005603000098
:020000040000fa
:04030c005603000094
:020000040000fa
:040310005603000090
:020000040000fa
:04031400560300008c
:020000040000fa
:040318005603000088
:020000040000fa
:04031c005603000084
:020000040000fa
:040320005603000080
:020000040000fa
:04032400560300007c
:020000040000fa
:040328005603000078
:020000040000fa
:04032c005603000074
:020000040000fa
:040330005603000070
:020000040000fa
:04033400560300006c
:020000040000fa
:040338005603000068
:020000040000fa
:04033c005603000064
:020000040000fa
:040340005603000060
:020000040000fa
:04034400560300005c
:020000040000fa
:100400006f8020000eff27000e0188000000000012
:10041000000020000000e000020032000001200087
:100420002002880014000700a20007000000e0007e
:1004300003003a0060432000010020000200370062
:100440000000200001002000810f70000100320038
:1004500014000700000020000000e000020032004d
:10046000000002000000000028040200000000005c
:100470000040da000000fe004440a900a002200075
:100480000000e0000300320000002000a00188000e
:100490004440a800000006008a1f78008b1f7800e7
:1004a0000000060091018800800478000000eb0045
:1004b0001a003700e284440032a0b4009905ba0063
:1004c000e284440032a0b4009906ba00e2844400f9
:1004d00032a0b4000006eb00476fde00fd07b2005b
:1004e000636ce10003003a00ebff07000000eb0043
:1004f0000a003700606ce10004003a00005deb0088
:100500008b05e900fdff3e00040037006168e10053
:10051000010032000086eb000b00070019c7ba008b
:100520001905ba000e04e00003003a000a00e000da
:10053000e0ff3a0000000600fe07b2009e018800be
:100540008a047800f5ff3700395dba008b05e900b1
:100550000c003200295dba008b05e900080032006a
:100560000c00e00003003a00e284440032a0b40032
:10057000f5ff370019ddba008b05e900faff3a00f4
:100580008904e800e184440032a0b40000000600c1
:10059000809fbe00821f78000000fa00401b84008c
:1005a0009000780001c0a10001087800014080009f
:1005b0001040800000804000104078000004e000ff
:1005c00009003200111b84000240800010408000ae
:1005d0000001410012417800824878000000e800e4
:1005e0001040880004003700301b84009000780021
:1005f00001c0a100010878000080fa004f017800d6
:100600004f00be00004006003600f800809fbe008c
:10061000829fbe00849fbe00869fbe000000fa003d
:10062000401b84009000780001b0a1000108780010
:10063000f01a840010007800620060000000e00002
:1006400004003200f01a8400900078000110a1002c
:1006500001087800f01a8400100078006100600042
:100660000000e0000a003200201b840010407800e7
:1006700080407800408020000148780050802000b1
:100680008040eb00014878004080200057000700c0
:100690000080fa004f03be004f02be004f01be00b3
:1006a0004f00be003600f900004006000040da00ae
:0806b0000000fe00000005003f
:020000040000fa
:1006b800200200002202000028020000240200009c
:1006c800260200009400000084000000554100004c
:1006d8005254000031200000545800002049000006
:1006e8004e5400004552000052550000505400007e
:1006f800204d00004f440000452000000d0a000076
:0407080000000000ed
:020000040000fa
:10070c000400fa00100798000000eb00000f7800be
:10071c00010037001e0fe8001e0090009e007800bc
:10072c00808f5000fbff39000080fa0000000600ab
:10073c000000fa00e01a8400900078000100a1008b
:10074c0001087800e01a84001001780091ff2f0056
:10075c008100610001087800e01a840090007800a4
:10076c000150a10001087800e01a84009000780084
:10077c000130a00001087800e01a84009000780095
:10078c0001f0a00001087800e01a84001001780044
:10079c00f1cf2f008100610001087800f01a84006d
:1007ac009000780001a0a00001087800001b8400d4
:1007bc007100200001087800301b84009000780044
:1007cc0001c0a10001087800301b84009000780063
:1007dc0001b0a000010878000080fa0000000600bb
:1007ec000200fa00000f7800f01a840090007800e4
:1007fc0000102000008060000000e0000f003200bc
:10080c001e007800004088000228ef00111b8400b5
:10081c00024080001040800000014100124178002d
:10082c00824878000000e80010408800301b8400eb
:10083c009000780001c0a000010878000080fa0048
:10084c00000006000000fa00b9ff07004006200077
:10085c00abff0700a0362800e1ff0700ffff3700c1
:020000040000fa
:10086c000408000002000000000000000008000066
:0c087c000400000000000000000000006c
:020000040000fa
:0200000401f009
:04000000ffffff00ff
:020000040000fa
:0200000401f009
:04000400ffffff00fb
:020000040000fa
:0200000401f009
:04000800ffffff00f7
:020000040000fa
:0200000401f009
:04000c007aff000077
:020000040000fa
:0200000401f009
:04001000bdff000030
:020000040000fa
:0200000401f009
:040014007fffff006b
:020000040000fa
:0200000401f009
:04001800ffff0000e6
:020000040000fa
:0200000401f009
:04001c00dfff000002
:00000001FF
